:100000008EC1A8C10BC2A6C126C3CDC4A3C1A2C1C3
:10001000A1C1A0C19FC19EC19DC19CC19BC13F42C6
:1000200045484A4D505356595C5F6265686B6E7126
:1000300075787B7E8184878A8E9194979A9DA0A300
:10004000A6A9ACAFB2B5B7BABDC0C2C5C8CACDCFFC
:10005000D1D4D6D8DBDDDFE1E3E5E7E8EAECEDEF8C
:10006000F0F2F3F4F6F7F8F9FAFAFBFCFCFDFDFE0A
:10007000FEFEFEFEFEFEFEFEFEFDFDFCFCFBFAF9B2
:10008000F8F7F6F5F4F3F1F0EEEDEBEAE8E6E4E28A
:10009000E0DEDCDAD8D5D3D1CECCC9C7C4C1BFBC71
:1000A000B9B6B4B1AEABA8A5A29F9C999693908D1A
:1000B000898683807D7A7774706D6A6764615E5B20
:1000C0005855524F4C494744413E3C393634312F04
:1000D0002D2A282623211F1D1B1917161412110F54
:1000E0000E0C0B0A080706050404030202010100B6
:1000F00000000000000000000001010202030405EE
:10010000060708090A0B0D0E1011131416181A1CF5
:100110001E20222426292B2D303235373A3D3F3DF3
:100120003A373532302D2B29262422201E1C1A184E
:1001300016141311100E0D0B0A0908070605040307
:1001400002020101000000000000000000000101A7
:100150000202030404050607080A0B0C0E0F111215
:10016000141617191B1D1F212326282A2D2F313461
:1001700036393C3E414447494C4F5255585B5E61CD
:1001800064676A6D7074777A7D808386898D9093B9
:1001900096999C9FA2A5A8ABAEB1B4B6B9BCBFC19D
:1001A000C4C7C9CCCED1D3D5D8DADCDEE0E2E4E6F0
:1001B000E8EAEBEDEEF0F1F3F4F5F6F7F8F9FAFB17
:1001C000FCFCFDFDFEFEFEFEFEFEFEFEFEFEFDFD57
:1001D000FCFCFBFAFAF9F8F7F6F4F3F2F0EFEDECC9
:1001E000EAE8E7E5E3E1DFDDDBD8D6D4D1CFCDCA5D
:1001F000C8C5C2C0BDBAB7B5B2AFACA9A6A3A09DD1
:100200009A9794918E8A8784817E7B7875716E6BC4
:100210006865625F5C595653504D4A484542FFFE3F
:10022000FEFEFEFEFDFDFCFBFBFAF9F8F7F6F5F429
:10023000F2F1EFEEECEBE9E7E5E4E2E0DDDBD9D764
:10024000D5D2D0CDCBC8C6C3C1BEBBB8B6B3B0AD96
:10025000AAA7A4A19E9B9895928F8B8885827F7C6C
:100260007976736F6C696663605D5A5754514E4B73
:10027000484643403D3B383633312E2C2927252331
:10028000211E1C1A1917151312100F0D0C0A09083C
:10029000070605040303020101000000000000003E
:1002A0000000000001010203030405060708090A13
:1002B0000C0D0F1012131517191A1C1E21232527B8
:1002C000292C2E313336383B3D404346484B4E5166
:1002D00054575A5D606366696C6F7376797C7F8270
:1002E00085888B8F9295989B9EA1A4A7AAADB0B349
:1002F000B6B8BBBEC1C3C6C8CBCDD0D2D5D7D9DB6B
:10030000DDE0E2E4E5E7E9EBECEEEFF1F2F4F5F63F
:10031000F7F8F9FAFBFBFCFDFDFEFEFEFEFE1124E4
:100320001FBECFE5D1E0DEBFCDBF10E0A0E6B0E05C
:10033000E0ECFAE002C005900D92AC36B107D9F7B7
:1003400020E0ACE6B0E001C01D92AF3DB207E1F79E
:1003500002D0B4C355CECF93DF9300D0CDB7DEB774
:10036000CCD109D0CE01019644D08111FBCF898137
:100370009A81E1D1F7CF1092790010927A00109211
:100380007B0010927C0010927E0010927D001092F3
:100390007F001092800010928100109282001092D3
:1003A0006C0010926D0010926E0010926F0010920F
:1003B00070001092710010927200109273001092EF
:1003C00074001092750010927600109277008FB72B
:1003D0008F778FBF8BB780628BBFAB9A89B78460F2
:1003E00089BF1FBC80B7846080BF8FB780688FBF14
:1003F0000895FC0190917E00992371F0809179001D
:1004000090917A00A0917B00B0917C00B183A08391
:1004100010927E0080E008958FEF08951F920F9252
:100420000FB60F9211240F931F932F933F934F9367
:100430005F936F937F938F939F93AF93BF93EF934C
:100440002FB580917F0090918000A0918100B091A4
:100450008200BA2FA92F982F8827820F911DA11DE6
:10046000B11D8093740090937500A0937600B093B3
:10047000770040916C0050916D0060916E0070911A
:100480006F00841B950BA60BB70B809370009093A5
:100490007100A0937200B093730098B380E1892734
:1004A00088BB80917D00833008F058C08130E9F02E
:1004B00018F08230A9F14FC086B383FB992790F9D9
:1004C00081E0892780937D0010927F001092800048
:1004D000109281001092820010926C0010926D00B8
:1004E00010926E0010926F00A2C0809170009091E7
:1004F0007100A0917200B091730086569142A109DB
:10050000B10985389340A105B10520F4B39B04C01F
:1005100082E003C080E001C080E080937D0077C06E
:100520008091700090917100A0917200B091730061
:10053000805A9F40A109B109893E9340A105B105A8
:1005400020F4B39904C083E003C080E001C080E0E0
:1005500080937D005CC010927D0069C08332B1F44D
:1005600081E080937E0010927D0010927F001092B7
:100570008000109281001092820010926C00109204
:100580006D0010926E0010926F0051C0B3993FC081
:100590008F5F80937D008091790090917A00A09187
:1005A0007B00B0917C00B695A79597958795809331
:1005B000790090937A00A0937B00B0937C004091E7
:1005C00070005091710060917200709173008A0107
:1005D0009B01005B144021093109013213402105C0
:1005E000310550F4B0688093790090937A00A0931D
:1005F0007B00B0937C000BC04C52514061097109E3
:10060000493552406105710510F010927D008091CE
:10061000740090917500A0917600B091770080935E
:100620006C0090936D00A0936E00B0936F0080E219
:100630008ABFEF91BF91AF919F918F917F916F9101
:100640005F914F913F912F911F910F910F900FBE8E
:100650000F901F9018951F920F920FB60F921124B2
:100660008F939F93AF93BF9380917F009091800071
:10067000A0918100B09182000196A11DB11D8093CF
:100680007F0090938000A0938100B0938200BF917F
:10069000AF919F918F910F900FBE0F901F90189563
:1006A00087B3866087BB6C9A0895662391F0FC013E
:1006B000AC01460F511D91919FB928E030E09DB1EA
:1006C00093609DB9689A21503109C9F7E417F5077D
:1006D00091F708958FB928E030E08DB183608DB92E
:1006E000689A21503109C9F708958091DE00F2DF40
:1006F00063E080E690E0D9DF0895CF93DF93BC9A62
:100700008FEF8093DE00CCDF64E087E690E0CDDF02
:10071000CEE1D0E0EADF2197E9F764E083E690E0FC
:10072000C4DF12BE83B7846083BF89B78D7F89BF62
:10073000DF91CF910895CF93DF93F8948F3120EE1E
:10074000920709F4AAC0D0F580352FEA920709F480
:100750008DC0D0F4893526EA920709F4ACC050F474
:100760008D3522EA920709F470C08C35934A09F45A
:1007700064C004C1883527EA920709F495C084351E
:100780009B4A09F46AC0FAC085342AEB920709F43F
:1007900099C050F48C3423EB920709F4A1C088343B
:1007A000974B09F49DC0EAC084342BEB920709F4FF
:1007B00090C081349E4B09F4DCC0E0C085312AEE44
:1007C000920709F4A4C0D0F4883127EE920709F407
:1007D0005DC050F48C3123EE920709F44FC08B3189
:1007E000944E09F45AC0CAC0873128EE920709F422
:1007F000AEC08631994E09F49AC0C0C081312EEE48
:10080000920709F48BC050F484312BEE920709F45F
:100810006EC082319D4E09F491C0B0C0873028EF80
:10082000920709F4A0C0863029EF920709F494C01A
:1008300080319F4E09F0A2C061C08091DE008F71AF
:100840008F5F806E8093DE009CC08091DE008F7190
:100850008150806E8093DE0094C0E0E6F0E08AEF85
:10086000828380E8818382E7808388C0E0E6F0E0CD
:100870008FEF82838CE88183108280C0E0E6F0E015
:100880008FEF828385EA8183108278C0E0E6F0E012
:100890008FEF82838183108271C0E0E6F0E01282E4
:1008A0008FEF818380836AC0E0E6F0E08FEF828380
:1008B0001182108263C0E0E6F0E012828FEF818344
:1008C00010825CC0E0E6F0E0128211828FEF80833C
:1008D00055C0E0E6F0E08FEF8283818380834EC0D5
:1008E000E0E6F0E08FEF82831182808347C0E0E68C
:1008F000F0E08281807F805F828340C0E0E6F0E0AC
:100900008281982F9F708051890F828337C0E0E6E3
:10091000F0E08181807F805F818330C0E0E6F0E09D
:100920008181982F9F708051890F818327C0E0E6D5
:10093000F0E08081807F805F808320C0E0E6F0E08F
:10094000808190EF980F8F70890F808317C093B7C5
:1009500081E0892783BF22C089B7826089BF81E097
:100960008093DD001BC089B7826089BF1092DD00D3
:1009700015C099B782E0892789BF10C089B78D7FDC
:1009800089BF64E087E690E090DECEE1D0E0ADDEA6
:100990002197E9F764E083E690E087DEC4987894D5
:1009A000DF91CF91089578941F920F920FB60F9216
:1009B00011240F931F932F933F934F935F936F9344
:1009C0007F938F939F93AF93BF93CF93DF93EF93D7
:1009D000FF9364E087E690E068DEC0E0D0E000E6E8
:1009E00010E08091DD00882321F0E0917800F0E0B4
:1009F0000BC090917800FE01E90FF11DF078FF2304
:100A00001CF43197FF6F3196E25EFD4FE491E6955D
:100A1000D8011296EC93882321F0E0917800F0E061
:100A20000BC090917800FE01E90FF11DF078FF23D3
:100A30001CF43197FF6F3196E25EFE4FE491E6952C
:100A4000D8011196EC93882321F0E0917800F0E032
:100A50000BC080917800FE01E80FF11DF078FF23B4
:100A60001CF43197FF6F3196E25EFF4FE491E695FB
:100A7000D801EC933ADE2896C03FD10509F0B1CFFA
:100A800064E083E690E011DE809178008F5F8093D0
:100A90007800FF91EF91DF91CF91BF91AF919F913E
:100AA0008F917F916F915F914F913F912F911F9106
:100AB0000F910F900FBE0F901F901895F894FFCFD5
:0C0AC0000000FFFFFFFFFF00000000002F
:040000050080006710
:00000001FF
