:100000008EC1A8C1FBC1A6C1F2C285C4A3C1A2C151
:10001000A1C1A0C19FC19EC19DC19CC19BC13F42C6
:1000200045484A4D505356595C5F6265686B6E7126
:1000300075787B7E8184878A8E9194979A9DA0A300
:10004000A6A9ACAFB2B5B7BABDC0C2C5C8CACDCFFC
:10005000D1D4D6D8DBDDDFE1E3E5E7E8EAECEDEF8C
:10006000F0F2F3F4F6F7F8F9FAFAFBFCFCFDFDFE0A
:10007000FEFEFEFEFEFEFEFEFEFDFDFCFCFBFAF9B2
:10008000F8F7F6F5F4F3F1F0EEEDEBEAE8E6E4E28A
:10009000E0DEDCDAD8D5D3D1CECCC9C7C4C1BFBC71
:1000A000B9B6B4B1AEABA8A5A29F9C999693908D1A
:1000B000898683807D7A7774706D6A6764615E5B20
:1000C0005855524F4C494744413E3C393634312F04
:1000D0002D2A282623211F1D1B1917161412110F54
:1000E0000E0C0B0A080706050404030202010100B6
:1000F00000000000000000000001010202030405EE
:10010000060708090A0B0D0E1011131416181A1CF5
:100110001E20222426292B2D303235373A3D3F3DF3
:100120003A373532302D2B29262422201E1C1A184E
:1001300016141311100E0D0B0A0908070605040307
:1001400002020101000000000000000000000101A7
:100150000202030404050607080A0B0C0E0F111215
:10016000141617191B1D1F212326282A2D2F313461
:1001700036393C3E414447494C4F5255585B5E61CD
:1001800064676A6D7074777A7D808386898D9093B9
:1001900096999C9FA2A5A8ABAEB1B4B6B9BCBFC19D
:1001A000C4C7C9CCCED1D3D5D8DADCDEE0E2E4E6F0
:1001B000E8EAEBEDEEF0F1F3F4F5F6F7F8F9FAFB17
:1001C000FCFCFDFDFEFEFEFEFEFEFEFEFEFEFDFD57
:1001D000FCFCFBFAFAF9F8F7F6F4F3F2F0EFEDECC9
:1001E000EAE8E7E5E3E1DFDDDBD8D6D4D1CFCDCA5D
:1001F000C8C5C2C0BDBAB7B5B2AFACA9A6A3A09DD1
:100200009A9794918E8A8784817E7B7875716E6BC4
:100210006865625F5C595653504D4A484542FFFE3F
:10022000FEFEFEFEFDFDFCFBFBFAF9F8F7F6F5F429
:10023000F2F1EFEEECEBE9E7E5E4E2E0DDDBD9D764
:10024000D5D2D0CDCBC8C6C3C1BEBBB8B6B3B0AD96
:10025000AAA7A4A19E9B9895928F8B8885827F7C6C
:100260007976736F6C696663605D5A5754514E4B73
:10027000484643403D3B383633312E2C2927252331
:10028000211E1C1A1917151312100F0D0C0A09083C
:10029000070605040303020101000000000000003E
:1002A0000000000001010203030405060708090A13
:1002B0000C0D0F1012131517191A1C1E21232527B8
:1002C000292C2E313336383B3D404346484B4E5166
:1002D00054575A5D606366696C6F7376797C7F8270
:1002E00085888B8F9295989B9EA1A4A7AAADB0B349
:1002F000B6B8BBBEC1C3C6C8CBCDD0D2D5D7D9DB6B
:10030000DDE0E2E4E5E7E9EBECEEEFF1F2F4F5F63F
:10031000F7F8F9FAFBFBFCFDFDFEFEFEFEFE1124E4
:100320001FBECFE5D1E0DEBFCDBF10E0A0E6B0E05C
:10033000E2ECF9E002C005900D92AC36B107D9F7B6
:1003400020E0ACE6B0E001C01D92A43FB207E1F7A7
:1003500002D035C355CECF93DF9300D0CDB7DEB7F3
:10036000A1D109D0CE01019634D08111FBCF898172
:100370009A81BAD1F7CF1092710010927200109248
:100380007300109274001092760010927500109213
:100390007700109278001092790010927A001092F3
:1003A0006C0010926D0010926E0010926F008FB76B
:1003B0008F778FBF8BB780628BBFAB9A89B7846012
:1003C00089BF1FBC80B7816080BF8FB780688FBF37
:1003D0000895FC0190917600992371F0809171004D
:1003E00090917200A0917300B0917400B183A083CA
:1003F0001092760080E008958FEF08951F920F927B
:100400000FB60F921124CF92DF92EF92FF920F93CB
:100410001F932F933F934F935F936F937F938F938C
:100420009F93AF93BF93EF932FB5809177009091F7
:100430007800A0917900B0917A00BA2FA92F982F57
:100440008827820F911DA11DB11D40916C00509114
:100450006D0060916E0070916F008C019D01041B16
:10046000150B260B370BB901A8012091750023301D
:1004700008F048C02130E9F018F0223069F13FC09F
:1004800086B383FB992790F981E0892780937500D3
:1004900010927700109278001092790010927A00F2
:1004A00010926C0010926D0010926E0010926F000E
:1004B00086C046565142610971094538534061056D
:1004C000710520F4B39B04C022E003C020E001C00A
:1004D00020E0209375006BC0405A5F4061097109AC
:1004E000493E53406105710520F4B39904C023E0EF
:1004F00003C020E001C020E02093750058C0109296
:1005000075005DC02332B1F481E0809376001092D3
:100510007500109277001092780010927900109276
:100520007A0010926C0010926D0010926E00109282
:100530006F0045C0B3993BC02F5F209375000091B9
:100540007100109172002091730030917400369503
:1005500027951795079500937100109372002093CB
:100560007300309374006A017B01E0EBCE1AE4E083
:10057000DE0AE108F108E1E2CE16E3E0DE06E1047E
:10058000F10450F4306800937100109372002093CE
:100590007300309374000BC04C52514061097109D3
:1005A000493552406105710510F010927500809335
:1005B0006C0090936D00A0936E00B0936F0080E28A
:1005C0008ABFEF91BF91AF919F918F917F916F9172
:1005D0005F914F913F912F911F910F91FF90EF905D
:1005E000DF90CF900F900FBE0F901F9018951F9225
:1005F0000F920FB60F9211248F939F93AF93BF93D7
:100600008091770090917800A0917900B0917A0064
:100610000196A11DB11D8093770090937800A0935F
:100620007900B0937A00BF91AF919F918F910F9015
:100630000FBE0F901F90189587B3866087BB6C9A8A
:100640000895662391F0FC01AC01460F511D919174
:100650009FB928E030E09DB193609DB9689A215020
:100660003109C9F7E417F50791F708950F931F9320
:10067000CF93DF9364E088E690E0E3DFCBE7D0E060
:1006800003EF10E064E0CE01DCDF2496C017D10751
:10069000C9F764E084E690E0D4DFDF91CF911F9149
:1006A0000F910895CF93DF93BC9AC6DFEBE7F0E09C
:1006B00023EF30E0C0E6D0E088819981AA81BB8138
:1006C00081939193A193B193E217F307A9F7CEDF3A
:1006D0001092F30012BE83B7846083BF89B7826033
:1006E00089BFDF91CF910895CF93DF9338B320E195
:1006F000232728BB883427EB920731F48091F3003D
:1007000080958093F30004C184342BEB920709F4A5
:10071000B2C080F584352BEA920709F470C0A8F4C2
:100720008C3523EA920709F45AC028F48D35924A91
:1007300009F45DC0DDC0893526EA920709F48DC051
:100740008835974A09F482C0D3C08C3423EB9207D2
:1007500009F498C028F480359F4A09F459C0C8C0EC
:10076000883427EB920709F48DC085349A4B09F43D
:100770007BC0BEC0863129EE920709F4AAC0A8F456
:100780008C3123EE920709F44BC028F48F31904E40
:1007900009F455C0ADC08B3124EE920709F44FC067
:1007A0008831974E09F444C0A3C082312DEE9207E0
:1007B00009F496C050F485312AEE920709F479C005
:1007C00084319B4E09F465C093C081312EEE9207AF
:1007D00009F476C080319F4E09F462C089C0E0E61A
:1007E000F0E080818F718F5F806E808381C0E0E652
:1007F000F0E080818F718150806E808379C0E0E667
:10080000F0E08AEF838380E8828382E7818370C08F
:10081000E0E6F0E08FEF83838CE88283118268C08A
:10082000E0E6F0E08FEF838385EA8283118260C087
:10083000E0E6F0E08FEF83838283118259C0E0E627
:10084000F0E013828FEF8283818352C0E0E6F0E014
:100850008FEF8383128211824BC0E0E6F0E01382B7
:100860008FEF8283118244C0E0E6F0E013821282AF
:100870008FEF81833DC0E0E6F0E08FEF83838283DA
:10088000818336C0E0E6F0E08FEF838312828183BC
:100890002FC0E0E6F0E08381807F805F838328C003
:1008A000E0E6F0E08381982F9F708051890F838369
:1008B0001FC0E0E6F0E08281807F805F828318C005
:1008C000E0E6F0E08281982F9F708051890F82834B
:1008D0000FC0E0E6F0E08181807F805F818308C007
:1008E000E0E6F0E0818190EF980F8F70890F8183AF
:1008F00064E088E690E0A5DECEE1D0E064E080E64A
:1009000090E09FDE2197D1F764E084E690E099DEE5
:10091000DF91CF91089578941F920F920FB60F92A6
:1009200011242F933F934F935F936F937F938F93F4
:100930009F93AF93BF93CF93DF93EF93FF938091F8
:10094000F300882349F12091700030E0B901625E24
:100950007D4FA901425E5E4F225E3F4FACE7B0E0A3
:10096000C4EFD0E0FB018491869512968C93129788
:10097000FA018491869511968C931197F9018491CF
:1009800086958C931496AC17BD0761F76FDE809146
:1009900070008F5F80937000FF91EF91DF91CF9196
:1009A000BF91AF919F918F917F916F915F914F9187
:1009B0003F912F910F900FBE0F901F901895F894B4
:0209C000FFCF67
:0C09C200FF0000FFFFFFFFFF000000002F
:04000005008000680F
:00000001FF
