:100000001DC037C0A0C035C034C033C032C031C0FD
:1000100030C02FC02EC02DC02CC02BC02AC005A8B8
:100020004CCDB2D44EB93836A9020C50B99186885D
:10003000083CA6AAAA2ABE000000803F11241FBEC9
:10004000CFE5D1E0DEBFCDBF10E0A0E6B0E0E0E656
:10005000FEE002C005900D92A836B107D9F720E066
:10006000A8E6B0E001C01D92A23FB207E1F74ED46E
:10007000F5C6C6CF87B3866087BBC1986C9A0895D2
:10008000662381F0FC01AC01460F511D21E193E193
:1000900081918FB988E02DB99DB98150E1F7E417BE
:1000A000F507B1F70895CF93DF93CDB7DEB787E3B8
:1000B00090E027E330E0F90120812860FC012083F3
:1000C00085E390E025E330E0F90120812061FC0127
:1000D00020838BE590E02BE530E0F9012081206260
:1000E000FC0120838FE590E02FE530E0F9012081CD
:1000F0002068FC01208310926D000000DF91CF91F9
:100100000895CF93DF93CDB7DEB780916D0088233C
:1001100021F010926D0081E001C080E0DF91CF916D
:100120000895CF93DF93CDB7DEB7809172009091A1
:100130007300A0917400B0917500CD01AA27BB2770
:10014000DF91CF9108951F920F9200905F000F9260
:1001500011242F933F934F935F936F937F938F93CC
:100160009F93AF93BF93EF93FF93CF93DF93CDB75D
:10017000DEB76E97DEBFCDBF88E390E028E330E0C6
:10018000F90120812860FC01208386E390E0FC01D6
:100190008081882F90E080719927892B09F091C187
:1001A00010926E0010926F00109270001092710009
:1001B000000086E390E0FC018081882F90E0807150
:1001C0009927892BB1F3109269001092680011C031
:1001D00080916800909169000196909369008093E6
:1001E000680080916800909169008115984009F439
:1001F0006AC186E390E0FC018081882F90E08071E5
:100200009927892B29F71A821982CBC080916E0019
:1002100090916F00A0917000B0917100B695A79574
:100220009795879580936E0090936F00A0937000D0
:10023000B0937100000086E390E0FC018081882F7C
:1002400090E080719927892BB1F385E89BEEA1E1BD
:10025000BFE38F839887A987BA8720E030E04AEF11
:1002600054E46F81788589859A8549D5DC01CB0175
:100270008B879C87AD87BE8720E030E040E85FE356
:100280006B857C858D859E85ABD388232CF481E09E
:1002900090E0988B8F873BC020E03FEF4FE757E41B
:1002A0006B857C858D859E8526D518163CF520E0CE
:1002B00030E040E251E46F81788589859A851FD5C9
:1002C000DC01CB01BC01CD01FFD3DC01CB01988B5C
:1002D0008F870FC088EC90E09A8B898B89899A89E7
:1002E0000197F1F79A8B898B8F8598890197988B65
:1002F0008F878F859889892B69F713C06B857C85DB
:100300008D859E85E1D3DC01CB01988B8F878F850E
:1003100098899C8B8B8B8B899C890197F1F79C8B9F
:100320008B8B86E390E0FC018081882F90E08071C8
:100330009927892B89F080916E0090916F00A09190
:100340007000B0917100B06880936E0090936F0060
:10035000A0937000B0937100109269001092680031
:1003600011C0809168009091690001969093690096
:100370008093680080916800909169008115984091
:1003800009F4A3C086E390E0FC018081882F90E00F
:1003900080719927892B29F789819A8101969A83FF
:1003A000898389819A8180970CF430CF85EC90E223
:1003B000A0E1BFE38B839C83AD83BE8320E030E06C
:1003C0004AEF54E46B817C818D819E8198D4DC015D
:1003D000CB018D8B9E8BAF8BB88F20E030E040E857
:1003E0005FE36D897E898F89988DFAD288232CF4FA
:1003F00081E090E09A8F898F3BC020E03FEF4FE78C
:1004000057E46D897E898F89988D75D418163CF5CF
:1004100020E030E040E251E46B817C818D819E815F
:100420006ED4DC01CB01BC01CD014ED3DC01CB018C
:100430009A8F898F0FC088EC90E09C8F8B8F8B8D6B
:100440009C8D0197F1F79C8F8B8F898D9A8D0197E9
:100450009A8F898F898D9A8D892B69F713C06D8941
:100460007E898F89988D30D3DC01CB019A8F898F5B
:10047000898D9A8D9E8F8D8F8D8D9E8D0197F1F731
:100480009E8F8D8F80916E0090916F00A091700073
:10049000B091710081159F4FC9F480916E009091C9
:1004A0006F00A0917000B0917100809372009093E2
:1004B0007300A0937400B093750081E080936D0089
:1004C00005C0000003C0000001C0000000008AE574
:1004D00090E02AE530E0F90120812062FC012083D0
:1004E00088E390E028E330E0F9012081277FFC01D8
:1004F000208300006E960FB6F894DEBF0FBECDBF0E
:10050000DF91CF91FF91EF91BF91AF919F918F912B
:100510007F916F915F914F913F912F910F9000923A
:100520005F000F901F90189564E084E690E0A8DDCE
:100530006CE786E790E0A4CD1F93CF93DF939ADD1D
:1005400064E084E690E09CDDC6E7D0E01FEF18830E
:100550001B831A82198264E0CE0192DD249680E02A
:10056000C23FD807A1F7DF91CF911F9108954F9215
:100570005F926F927F92AF92BF92DF92EF92FF9263
:100580000F931F93CF93DF93CCDD8C30934FC9F142
:10059000B8DD81110EC0DF91CF911F910F91FF90B7
:1005A000EF90DF90BF90AF907F906F905F904F90F3
:1005B0000895B7DD84342BEB920709F474C108F475
:1005C000A1C085312AEE920709F48EC108F4BBC0A0
:1005D00081312EEE920709F47EC108F00CC18431FE
:1005E0002BEE920709F48BC182319D4E09F0C0C0F9
:1005F0008091610090EF980F8F70890F8093610058
:10060000B7C0F894D0906C00A0906A00B0906B00D6
:10061000B50180E090E084D29B01AC017DD12BED4F
:100620003FE049E450E46BD320E030E040E05BE39E
:1006300066D32B013C0122E93AE046E050E46CD15C
:10064000D3D120E030E04FE753E459D338D27B01D7
:1006500077FDC7C022E93AE046E850E4C301B201A1
:100660005BD1C2D120E030E04FE753E448D327D23A
:100670009B0177FDBBC0F22EC7E7D0E000E010E0A1
:100680001AC0B801012E000C880B990B4BD220E048
:1006900030E048EF51E4ABD120E030E04FE753E4E5
:1006A0002ED312D26A83E982F8820F5F1F4F2496FD
:1006B0000F311105B9F0D110E4CFC301B20194D1CB
:1006C00020E030E04FE753E41AD3F9D19B0177FDE6
:1006D00013C02A83E982F8820F5F1F4F24960F31DF
:1006E000110549F78FEFA81AB80AB0926B00A092D3
:1006F0006A001ADF78944CCF22273327261B370B4A
:100700002A83E8CF84352BEA920709F4B0C008F0B9
:100710004FC08C3523EA920709F4A1C008F47EC0CB
:10072000893526EA920709F4E6C08835974A01F52B
:100730008FEF80936300109262001092610089B77E
:100740008B7F89BF15C08C3123EE920709F482C0DC
:1007500008F49AC08B3124EE920709F499C08631CF
:10076000994E31F480916100807F805F80936100B9
:10077000E6E7F0E08091600090916100A091620056
:10078000B091630081939193A193B19320E0E23FF4
:10079000F207C1F7DF91CF911F910F91FF90EF907A
:1007A000DF90BF90AF907F906F905F904F90BCCEE6
:1007B0008C3423EB920709F47AC0E0F1883427EBFC
:1007C000920709F474C085349A4B91F61092630035
:1007D000109262008FEF8093610089B78B7F89BF91
:1007E000C7CFEE24FF24E61AF70A34CF2227332797
:1007F000261B370B40CF80312FEE920709F462C0E1
:100800008C30934F09F0B4CF89B7846089BF909141
:100810006C0081E0892780936C00BDCE8D35924AB3
:1008200009F0A6CF809160008F718150806E809317
:1008300060009ECF80359F4A09F09ACF8FEF80935A
:1008400063008CE8809362001092610089B78B7F0F
:1008500089BF8ECF8FEF8093630085EAF3CF8091BD
:1008600060008F718F5F806E8093600081CF8AEF10
:100870008093630080E88093620082E78093610048
:1008800089B78B7F89BF74CF8F31904E09F070CFBD
:10089000109263008FEF809362008093610089B7AC
:1008A0008B7F89BF65CF8FEF80936300F4CF8FEF8D
:1008B00080936300109262008093610089B78B7F00
:1008C00089BF56CF80916300982F9F708051890F08
:1008D000809363004DCF80916200982F9F7080516C
:1008E000890F8093620044CF80916200807F805F97
:1008F000809362003DCF109263008FEFA3CF809171
:100900006300807F805F8093630032CFCCDB14DE96
:100910002EDE2DDEFDCF5058BB27AA270ED0A0C15A
:1009200069D130F06ED120F031F49F3F11F41EF404
:100930005EC10EF4E095E7FB54C1E92FB3D180F31B
:10094000BA17620773078407950718F071F49EF5CC
:10095000CBC10EF4E0950B2EBA2FA02D0B01B901DF
:1009600090010C01CA01A0011124FF27591B99F025
:10097000593F50F4503E68F11A16F040A22F232F31
:10098000342F4427585FF3CF469537952795A79581
:10099000F0405395C9F77EF41F16BA0B620B730B28
:1009A000840BBAF09150A1F0FF0FBB1F661F771F99
:1009B000881FC2F70EC0BA0F621F731F841F48F44E
:1009C000879577956795B795F7959E3F08F0B3CFD4
:1009D0009395880F08F09927EE0F979587950895BE
:1009E000DCD008F481E0089514D1E3954AC10CD01D
:1009F00037C107D140F0FED030F021F45F3F19F04D
:100A0000F0C0511172C1F3C04DD198F39923C9F3CD
:100A10005523B1F3951B550BBB27AA276217730704
:100A2000840738F09F5F5F4F220F331F441FAA1FB8
:100A3000A9F333D00E2E3AF0E0E830D09150504078
:100A4000E695001CCAF729D0FE2F27D0660F771F26
:100A5000881FBB1F261737074807AB07B0E809F008
:100A6000BB0B802DBF01FF2793585F4F2AF09E3F9D
:100A7000510568F0B6C039C15F3FECF3983EDCF336
:100A8000869577956795B795F7959F5FC9F7880F16
:100A9000911D9695879597F90895E1E0660F771F68
:100AA000881FBB1F621773078407BA0720F0621BF9
:100AB000730B840BBA0BEE1F88F7E095089504D0F2
:100AC0006894B11112C10895F5D088F09F5790F045
:100AD000B92F9927B751A0F0D1F0660F771F881F63
:100AE000991F1AF0BA95C9F712C0B13081F0FCD045
:100AF000B1E00895F9C0672F782F8827B85F39F0E3
:100B0000B93FCCF3869577956795B395D9F73EF4C1
:100B100090958095709561957F4F8F4F9F4F089569
:100B2000E89409C097FB3EF4909580957095619587
:100B30007F4F8F4F9F4F9923A9F0F92F96E9BB273D
:100B40009395F695879577956795B795F111F8CFB9
:100B5000FAF4BB0F11F460FF1BC06F5F7F4F8F4F24
:100B60009F4F16C0882311F096E911C0772321F01A
:100B70009EE8872F762F05C0662371F096E8862FB2
:100B800070E060E02AF09A95660F771F881FDAF709
:100B9000880F9695879597F90895990F0008550F36
:100BA000AA0BE0E8FEEF16161706E807F907C0F0F3
:100BB00012161306E407F50798F0621B730B840BFB
:100BC000950B39F40A2661F0232B242B252B21F4D5
:100BD00008950A2609F4A140A6958FEF811D811D75
:100BE000089597F99F6780E870E060E008959FEFAF
:100BF00080EC089500240A941616170618060906B4
:100C0000089500240A941216130614060506089582
:100C1000EECF50D0E8F3E894E0E0BB279F57F0F028
:100C20002AED3FE049EC06C0EE0FBB0F661F771FB1
:100C3000881F28F0B23A62077307840728F0B25A77
:100C4000620B730B840BE3959A9572F7803830F43E
:100C50009A95BB0F661F771F881FD2F79048BCC0BC
:100C6000092E0394000C11F4882352F0BB0F40F4BA
:100C7000BF2B11F460FF04C06F5F7F4F8F4F9F4FFA
:100C80000895EF93E0FF06C0A2EA2AED3FE049ECA9
:100C90005FEB53DEE5DF0F90039401FC9058EEE12B
:100CA000F0E0A6C057FD9058440F551F59F05F3F24
:100CB00071F04795880F97FB991F61F09F3F79F07E
:100CC00087950895121613061406551FF2CF469500
:100CD000F1DF08C0161617061806991FF1CF869582
:100CE0007105610508940895E894BB276627772766
:100CF000CB0197F9089551DF08F48FEF08950AD0DA
:100D0000AFCF78DF28F07DDF18F0952309F069CFA9
:100D10006ECFEBCFC7DFA8F39923D9F35523C9F3DF
:100D2000950F50E0551FAA27EE27FF27BB27002469
:100D30000894679520F4E20FF31FB41F0A1E220FD8
:100D4000331F441FAA1F6695A9F7779530F4F30F58
:100D5000B41F0A1E121E08F46395330F441FAA1F06
:100D6000221F769599F7879520F4B40F0A1E121E5C
:100D7000631F440FAA1F221F331F8695A9F7862FD2
:100D8000712D602D11249F5750408AF0E1F0882387
:100D90004AF0EE0FFF1FBB1F661F771F881F915081
:100DA0005040A9F79E3F510570F01BCF9ECF5F3F8B
:100DB000ECF3983EDCF3869577956795B795F795B4
:100DC000E7959F5FC1F7FE2B880F911D969587953C
:100DD00097F908959F3F31F0915020F487957795CA
:100DE0006795B795880F911D9695879597F9089502
:100DF0009F938F937F936F93FF93EF939B01AC012E
:100E00007EDFEF91FF9105D02F913F914F915F9140
:100E100076CFDF93CF931F930F93FF92EF92DF92E2
:100E20007B018C01689405C0DA2EEF0173DFFE01AF
:100E3000E894A5912591359145915591AEF3EF0137
:100E40007CDDFE019701A801DA9479F7DF90EF903D
:100E5000FF900F911F91CF91DF910895F894FFCFEC
:080E6000FF000000000000008B
:040000050080006413
:00000001FF
