:100000000EC328C3DCC326C388C538C723C322C395
:1000100021C320C31FC31EC31DC31CC31BC3121196
:10002000100F0F0E0D0C0C0B0B0A0909080807071F
:100030000606050505040403030303020202020188
:1000400001010101010101010101010101010101A0
:100050000101010202020202030303040404050574
:1000600006060707080809090A0A0B0C0C0D0E0EF4
:100070000F1010111213141415161718191A1B1C2F
:100080001D1E1F202122232425262728292B2C2D25
:100090002E2F31323334363738393B3C3D3F4041E7
:1000A00043444547484A4B4D4E4F5152545557587B
:1000B0005A5B5D5E606163646667696A6C6D6F70F0
:1000C00072747577787A7B7D7E8082838586888955
:1000D0008B8C8E909193949697999A9C9D9FA0A2B9
:1000E000A3A5A6A8A9ABACAEAFB1B2B3B5B6B8B92B
:1000F000BABCBDBFC0C1C3C4C5C6C8C9CACCCDCEB9
:10010000CFD0D2D3D4D5D6D7D9DADBDCDDDEDFE071
:10011000E1E2E3E4E5E6E7E8E9E9EAEBECEDEDEE60
:10012000EFF0F0F1F2F3F3F4F4F5F6F6F7F7F8F890
:10013000F9F9FAFAFAFBFBFCFCFCFCFDFDFDFDFE07
:10014000FEFEFEFEFEFEFEFEFEFEFEFEFEFEFEFECF
:10015000FEFEFEFDFDFDFDFDFCFCFCFBFBFBFAFADB
:10016000F9F9F8F8F7F7F6F6F5F5F4F3F3F2F1F13B
:10017000F0EFEFEEEDECEBEBEAE9E8E7E6E5E4E3E0
:10018000E2E1E0DFDEDDDCDBDAD9D8D7D6D4D3D2CA
:10019000D1D0CECDCCCBC9C8C7C6C4C3C2C0BFBEE8
:1001A000BCBBBAB8B7B5B4B2B1B0AEADABAAA8A734
:1001B000A5A4A2A19F9E9C9B999896959392908F9F
:1001C0008D8B8A8887858482817F7D7C7A7977761A
:1001D0007473716F6E6C6B696866656362605F5D96
:1001E0005C5A595756545351504E4D4C4A49474604
:1001F000454342403F3E3C3B3A3937363533323156
:10020000302F2D2C2B2A2928262524232221201F7C
:100210001E1D1C1B1A191817161615141312EDEDB6
:10022000ECEBEAE9E9E8E7E6E5E4E3E2E1E0DFDE7A
:10023000DDDCDBDAD9D7D6D5D4D3D2D0CFCECDCC76
:10024000CAC9C8C6C5C4C3C1C0BFBDBCBAB9B8B6A7
:10025000B5B3B2B1AFAEACABA9A8A6A5A3A2A09FFF
:100260009D9C9A999796949391908E8C8B89888671
:10027000858382807E7D7B7A7877757472706F6DEE
:100280006C6A696766646361605E5D5B5A58575566
:100290005452514F4E4D4B4A484745444341403FCD
:1002A0003D3C3B39383736343332312F2E2D2C2B11
:1002B000292827262524232221201F1E1D1C1B1A26
:1002C0001918171615141413121110100F0E0E0D05
:1002D0000C0C0B0A0A09090808070706060505049D
:1002E00004040303030202020202010101010101ED
:1002F00001010101010101010101010101010202EC
:1003000002020303030304040505050606070708A4
:100310000809090A0B0B0C0C0D0E0F0F101112120D
:1003200013141516161718191A1B1C1D1E1F202131
:10033000222324252628292A2B2C2D2F3031323315
:10034000353637393A3B3C3E3F40424345464749C4
:100350004A4C4D4E505153545657595A5C5D5F604C
:100360006263656668696B6C6E6F717374767779BA
:100370007A7C7D7F8182848587888A8B8D8F90921D
:1003800093959698999B9C9E9FA1A2A4A5A7A8AA85
:10039000ABADAEB0B1B2B4B5B7B8BABBBCBEBFC0FE
:1003A000C2C3C4C6C7C8C9CBCCCDCED0D1D2D3D49A
:1003B000D6D7D8D9DADBDCDDDEDFE0E1E2E3E4E565
:1003C000E6E7E8E9EAEBEBECEDEEEFEFF0F1F1F266
:1003D000F3F3F4F5F5F6F6F7F7F8F8F9F9FAFAFBAE
:1003E000FBFBFCFCFCFDFDFDFDFDFEFEFEFEFEFE3E
:1003F000FEFEFEFEFEFEFEFEFEFEFEFEFEFEFDFD1F
:10040000FDFDFCFCFCFCFBFBFAFAFAF9F9F8F8F745
:10041000F7F6F6F5F4F4F3F3F2F1F0F0EFEE808195
:1004200083848687898A8C8D8F9192949597989AE8
:100430009B9D9EA0A1A3A4A6A7A9AAACADAFB0B254
:10044000B3B4B6B7B9BABBBDBEBFC1C2C3C5C6C7D8
:10045000C9CACBCCCECFD0D1D2D4D5D6D7D8D9DA81
:10046000DBDDDEDFE0E1E2E3E4E5E6E6E7E8E9EA5A
:10047000EBECECEDEEEFF0F0F1F2F2F3F4F4F5F575
:10048000F6F7F7F8F8F9F9F9FAFAFBFBFBFCFCFCD4
:10049000FDFDFDFDFEFEFEFEFEFEFEFEFEFEFFFE7F
:1004A000FEFEFEFEFEFEFEFEFEFDFDFDFDFCFCFC76
:1004B000FBFBFBFAFAF9F9F9F8F8F7F7F6F5F5F4BA
:1004C000F4F3F2F2F1F0F0EFEEEDECECEBEAE9E848
:1004D000E7E6E6E5E4E3E2E1E0DFDEDDDBDAD9D81A
:1004E000D7D6D5D4D2D1D0CFCECCCBCAC9C7C6C52A
:1004F000C3C2C1BFBEBDBBBAB9B7B6B4B3B2B0AF69
:10050000ADACAAA9A7A6A4A3A1A09E9D9B9A9897CB
:10051000959492918F8D8C8A898786848381807E41
:100520007C7B797876757372706E6D6B6A686765BF
:100530006462615F5E5C5B595856555352504F4D33
:100540004C4B49484645444241403E3D3C3A39388F
:100550003635343331302F2E2D2B2A2928272625C6
:10056000242221201F1E1D1C1B1A191918171615CD
:100570001413131211100F0F0E0D0D0C0B0B0A0A92
:100580000908080707060606050504040403030313
:100590000202020201010101010101010101010147
:1005A0000101010101010101010202020203030331
:1005B000040404050506060607070808090A0A0BCD
:1005C0000B0C0D0D0E0F0F1011121313141516171F
:1005D0001819191A1B1C1D1E1F202122242526272D
:1005E00028292A2B2D2E2F30313334353638393AFD
:1005F0003C3D3E40414244454648494B4C4D4F509E
:100600005253555658595B5C5E5F6162646567681A
:100610006A6B6D6E707273757678797B7C7E11244F
:100620001FBECFE5D1E0DEBFCDBF10E0A0E6B0E059
:10063000EEE8FFE002C005900D92AC36B107D9F7A5
:1006400020E0ACE6B0E001C01D92AD3DB207E1F79D
:1006500002D09BC4D5CCCF93DF9300D0CDB7DEB70B
:10066000B7D209D0CE01019684D08111FBCF898108
:100670009A81CCD2F7CFCF93DF93CDB7DEB710926C
:100680007A0010927B0010927C0010927D001092F4
:100690007F0010927E0010928000109281001092D4
:1006A00082001092830010927400109275001092D4
:1006B0007600109277008091740090917500A0915F
:1006C0007600B09177008093700090937100A093B2
:1006D0007200B09373008091700090917100A091AE
:1006E0007200B091730080936C0090936D00A093A2
:1006F0006E00B0936F008FE590E02FE530E0F901D8
:1007000020812F77FC0120838BE590E02BE530E002
:10071000F90120812062FC01208385E390E025E33C
:1007200030E0F90120812860FC01208389E590E018
:1007300029E530E0F90120812460FC0120838FE469
:1007400090E0FC01108280E590E020E530E0F901C6
:1007500020812460FC0120838FE590E02FE530E0CC
:10076000F90120812068FC0120830000DF91CF91F6
:100770000895CF93DF9300D0CDB7DEB79A838983F6
:1007800080917F008823A9F080917A0090917B006E
:10079000A0917C00B0917D00CD01AA27BB279C01D0
:1007A00089819A81FC013183208310927F0080E04F
:1007B00001C08FEF0F900F90DF91CF9108951F929E
:1007C0000F9200905F000F921124EF92FF920F930F
:1007D0001F932F933F934F935F938F939F93AF9369
:1007E000BF93EF93FF93CF93DF93CDB7DEB78091A5
:1007F000800090918100A0918200B0918300222717
:10080000382F492F5A2F8FE490E0FC018081882FE8
:1008100090E0A0E0B0E0820F931FA41FB51F80936B
:100820006C0090936D00A0936E00B0936F002091C8
:100830006C0030916D0040916E0050916F0080917E
:10084000740090917500A0917600B09177007901C5
:100850008A01E81AF90A0A0B1B0BD801C701809319
:10086000700090937100A0937200B093730088E3BE
:1008700090E028E330E0F901308120E12327FC01FA
:10088000208380917E00833008F08DC080917E00AF
:10089000882F90E08130910579F18230910509F43B
:1008A00055C0892B09F07CC086E390E0FC01808173
:1008B000882F90E08870992721E0892B09F020E0AB
:1008C000822F80937E0010928000109281001092FF
:1008D0008200109283008091800090918100A0910D
:1008E0008200B09183008093740090937500A09370
:1008F0007600B0937700F5C0809170009091710000
:10090000A0917200B091730086369142A105B105A5
:10091000C8F08091700090917100A0917200B09128
:1009200073008B3E9442A105B10560F486E390E02C
:10093000FC018081882F90E088709927892B11F025
:1009400082E001C080E080937E00BBC08091700097
:1009500090917100A0917200B0917300803A9F4015
:10096000A105B105C8F08091700090917100A0912F
:100970007200B091730089389341A105B10560F40C
:1009800086E390E0FC018081882F90E088709927B1
:10099000892B11F483E001C080E080937E0091C038
:1009A00010927E009EC080917E008332F1F481E03F
:1009B00080937F0010927E00109280001092810040
:1009C00010928200109283008091800090918100AB
:1009D000A0918200B0918300809374009093750081
:1009E000A0937600B09377007CC086E390E0FC0192
:1009F0008081882F90E088709927892B09F061C049
:100A000080917E008F5F80937E0080917A0090912C
:100A10007B00A0917C00B0917D00B695A79597953D
:100A2000879580937A0090937B00A0937C00B0938D
:100A30007D008091700090917100A0917200B09142
:100A40007300803B9440A105B105F8F080917000DF
:100A500090917100A0917200B0917300813D974018
:100A6000A105B10590F480917A0090917B00A0914E
:100A70007C00B0917D00B06880937A0090937B00F9
:100A8000A0937C00B0937D001CC080917000909179
:100A90007100A0917200B09173008C329140A10559
:100AA000B10568F08091700090917100A091720082
:100AB000B091730085389340A105B10510F01092F4
:100AC0007E0080916C0090916D00A0916E00B091BD
:100AD0006F008093740090937500A0937600B0939C
:100AE00077008AE590E020E2FC0120830000DF919E
:100AF000CF91FF91EF91BF91AF919F918F915F91B6
:100B00004F913F912F911F910F91FF90EF900F9078
:100B100000925F000F901F9018951F920F92009007
:100B20005F000F9211248F939F93AF93BF93CF9346
:100B3000DF93CDB7DEB78091800090918100A091C6
:100B40008200B09183000196A11DB11D80938000A9
:100B500090938100A0938200B09383000000DF9106
:100B6000CF91BF91AF919F918F910F9000925F00B5
:100B70000F901F90189587B3866087BB6C9A089575
:100B8000662391F0FC01AC01460F511D91919FB974
:100B900028E030E09DB193609DB9689A21503109F9
:100BA000C9F7E417F50791F708958FB928E030E009
:100BB0008DB183608DB9689A21503109C9F70895C4
:100BC0008091DC00F2DF63E080E690E0D9DF0895F9
:100BD000CF93DF93BC9A8FEF8093DC00CCDF64E08F
:100BE00087E690E0CDDFCDE1D0E0EADF2197E9F7BD
:100BF00064E083E690E0C4DF12BE83B7846083BF05
:100C000089B78D7F89BFDF91CF910895CF93DF930F
:100C1000F8948F3120EE920709F4AAC0D0F5803500
:100C20002FEA920709F48DC0D0F4893526EA92079D
:100C300009F4ACC050F48D3522EA920709F470C073
:100C40008C35934A09F464C004C1883527EA9207B9
:100C500009F495C084359B4A09F46AC0FAC085340A
:100C60002AEB920709F499C050F48C3423EB9207D5
:100C700009F4A1C08834974B09F49DC0EAC08434BC
:100C80002BEB920709F490C081349E4B09F4DCC031
:100C9000E0C085312AEE920709F4A4C0D0F488316F
:100CA00027EE920709F45DC050F48C3123EE9207D1
:100CB00009F44FC08B31944E09F45AC0CAC0873131
:100CC00028EE920709F4AEC08631994E09F49AC015
:100CD000C0C081312EEE920709F48BC050F48431EC
:100CE0002BEE920709F46EC082319D4E09F491C03B
:100CF000B0C0873028EF920709F4A0C0863029EFF2
:100D0000920709F494C080319F4E09F0A2C061C0DF
:100D10008091DC008F718F5F806E8093DC009CC0BF
:100D20008091DC008F718150806E8093DC0094C0D4
:100D3000E0E6F0E08AEF828380E8818382E78083C7
:100D400088C0E0E6F0E08FEF82838CE88183108238
:100D500080C0E0E6F0E08FEF828385EA8183108235
:100D600078C0E0E6F0E08FEF82838183108271C06B
:100D7000E0E6F0E012828FEF818380836AC0E0E6D4
:100D8000F0E08FEF82831182108263C0E0E6F0E032
:100D900012828FEF818310825CC0E0E6F0E0128265
:100DA00011828FEF808355C0E0E6F0E08FEF828301
:100DB000818380834EC0E0E6F0E08FEF8283118272
:100DC000808347C0E0E6F0E08281807F805F82839D
:100DD00040C0E0E6F0E08281982F9F708051890F3B
:100DE000828337C0E0E6F0E08181807F805F81838D
:100DF00030C0E0E6F0E08181982F9F708051890F2C
:100E0000818327C0E0E6F0E08081807F805F80837F
:100E100020C0E0E6F0E0808190EF980F8F70890F9E
:100E2000808317C093B781E0892783BF22C089B729
:100E3000826089BF81E08093DB001BC089B782603C
:100E400089BF1092DB0015C099B782E0892789BF5E
:100E500010C089B78D7F89BF64E087E690E090DE9F
:100E6000CDE1D0E0ADDE2197E9F764E083E690E0E4
:100E700087DEC4987894DF91CF91089578941F927B
:100E80000F920FB60F9211240F931F932F933F933E
:100E90004F935F936F937F938F939F93AF93BF9382
:100EA000CF93DF93EF93FF9364E087E690E068DEF3
:100EB000C0E0D0E000E610E08091DB00811108C0C6
:100EC000E0917800F0917900EC0FFD1FF17004C003
:100ED000E0917800F0917900E25EFB4FE491E695B5
:100EE000D8011296EC93811108C0E0917800F0913E
:100EF0007900EC0FFD1FF17004C0E0917800F091D3
:100F00007900E25EFD4FE491E695D8011196EC93ED
:100F1000811108C0E0917800F0917900EC0FFD1F7D
:100F2000F17004C0E0917800F0917900E25EFF4F2B
:100F3000E491E695D801EC9343DE2896C83ED105AE
:100F400009F0BACF64E083E690E01ADE8091780081
:100F50009091790001969170909379008093780038
:100F6000FF91EF91DF91CF91BF91AF919F918F91C1
:100F70007F916F915F914F913F912F911F910F91B1
:0E0F80000F900FBE0F901F901895F894FFCFA2
:0C0F8E000000FFFFFFFFFF00000000005C
:040000050080006710
:00000001FF
