:100000001DC037C0A0C035C034C033C032C031C0FD
:1000100030C02FC02EC02DC02CC02BC02AC005A8B8
:100020004CCDB2D44EB93836A9020C50B99186885D
:10003000083CA6AAAA2ABE000000803F11241FBEC9
:10004000CFE5D1E0DEBFCDBF10E0A0E6B0E0E8E450
:10005000FEE002C005900D92A836B107D9F720E066
:10006000A8E6B0E001C01D92A33FB207E1F743D478
:10007000E9C6C6CF87B3866087BBC1986C9A0895DE
:10008000662381F0FC01AC01460F511D31E123E1F3
:1000900091919FB998E03DB92DB99150E1F7E417DE
:1000A000F507B1F70895CF93DF93CDB7DEB787E3B8
:1000B00090E027E330E0F90120812860FC012083F3
:1000C00085E390E025E330E0F90120812061FC0127
:1000D00020838BE590E02BE530E0F9012081206260
:1000E000FC0120838FE590E02FE530E0F9012081CD
:1000F0002068FC01208310926E000000DF91CF91F8
:100100000895CF93DF93CDB7DEB780916E0088233B
:1001100021F010926E0081E001C080E0DF91CF916C
:100120000895CF93DF93CDB7DEB7809173009091A0
:100130007400A0917500B0917600CD01AA27BB276D
:10014000DF91CF9108951F920F9200905F000F9260
:1001500011242F933F934F935F936F937F938F93CC
:100160009F93AF93BF93EF93FF93CF93DF93CDB75D
:10017000DEB76E97DEBFCDBF88E390E028E330E0C6
:10018000F90120812860FC01208386E390E0FC01D6
:100190008081882F90E080719927892B09F091C187
:1001A00010926F0010927000109271001092720005
:1001B000000086E390E0FC018081882F90E0807150
:1001C0009927892BB1F3109269001092680011C031
:1001D00080916800909169000196909369008093E6
:1001E000680080916800909169008115984009F439
:1001F0006AC186E390E0FC018081882F90E08071E5
:100200009927892B29F71A821982CBC080916F0018
:1002100090917000A0917100B0917200B695A79571
:100220009795879580936F0090937000A0937100CD
:10023000B0937200000086E390E0FC018081882F7B
:1002400090E080719927892BB1F385E89BEEA1E1BD
:10025000BFE38F839887A987BA8720E030E04AEF11
:1002600054E46F81788589859A853DD5DC01CB0181
:100270008B879C87AD87BE8720E030E040E85FE356
:100280006B857C858D859E859FD388232CF481E0AA
:1002900090E0988B8F873BC020E03FEF4FE757E41B
:1002A0006B857C858D859E851AD518163CF520E0DA
:1002B00030E040E251E46F81788589859A8513D5D5
:1002C000DC01CB01BC01CD01F3D3DC01CB01988B68
:1002D0008F870FC088EC90E09A8B898B89899A89E7
:1002E0000197F1F79A8B898B8F8598890197988B65
:1002F0008F878F859889892B69F713C06B857C85DB
:100300008D859E85D5D3DC01CB01988B8F878F851A
:1003100098899C8B8B8B8B899C890197F1F79C8B9F
:100320008B8B86E390E0FC018081882F90E08071C8
:100330009927892B89F080916F0090917000A0918E
:100340007100B0917200B06880936F00909370005C
:10035000A0937100B093720010926900109268002F
:1003600011C0809168009091690001969093690096
:100370008093680080916800909169008115984091
:1003800009F4A3C086E390E0FC018081882F90E00F
:1003900080719927892B29F789819A8101969A83FF
:1003A000898389819A8180970CF430CF85EC90E223
:1003B000A0E1BFE38B839C83AD83BE8320E030E06C
:1003C0004AEF54E46B817C818D819E818CD4DC0169
:1003D000CB018D8B9E8BAF8BB88F20E030E040E857
:1003E0005FE36D897E898F89988DEED288232CF406
:1003F00081E090E09A8F898F3BC020E03FEF4FE78C
:1004000057E46D897E898F89988D69D418163CF5DB
:1004100020E030E040E251E46B817C818D819E815F
:1004200062D4DC01CB01BC01CD0142D3DC01CB01A4
:100430009A8F898F0FC088EC90E09C8F8B8F8B8D6B
:100440009C8D0197F1F79C8F8B8F898D9A8D0197E9
:100450009A8F898F898D9A8D892B69F713C06D8941
:100460007E898F89988D24D3DC01CB019A8F898F67
:10047000898D9A8D9E8F8D8F8D8D9E8D0197F1F731
:100480009E8F8D8F80916F0090917000A091710070
:10049000B091720081159F4FC9F480916F009091C7
:1004A0007000A0917100B0917200809373009093DE
:1004B0007400A0937500B093760081E080936E0085
:1004C00005C0000003C0000001C0000000008AE574
:1004D00090E02AE530E0F90120812062FC012083D0
:1004E00088E390E028E330E0F9012081277FFC01D8
:1004F000208300006E960FB6F894DEBF0FBECDBF0E
:10050000DF91CF91FF91EF91BF91AF919F918F912B
:100510007F916F915F914F913F912F910F9000923A
:100520005F000F901F90189564E084E690E0A8DDCE
:100530006CE787E790E0A4DD0895EF92FF921F93A8
:10054000CF93DF9397DD64E084E690E099DDC7E721
:10055000D0E00F2EF3EFEF2EF0E0FF2EF02D1FEF87
:1005600018831B831A82198264E0CE0189DD2496E8
:10057000CE15DF05A9F7DF91CF911F91FF90EF9086
:1005800008954F925F926F927F92AF92BF92DF92E7
:10059000EF92FF920F931F93CF93DF9380916D00A3
:1005A000882309F47EC0F894D0906C00A0906A0073
:1005B000B0906B00B50180E090E0A6D29B01AC0149
:1005C0009FD12BED3FE049E450E48DD320E030E0B3
:1005D00040E85AE388D32B013C0122E93AE046E0A7
:1005E00050E48ED1F5D120E030E04FE753E47BD3E7
:1005F0005AD27B01772324F4EE24FF24E61AF70A6B
:1006000022E93AE046E850E4C301B20179D1E0D1F1
:1006100020E030E04FE753E466D345D29B017723D7
:1006200024F422273327261B370BF22EC8E7D0E00D
:1006300000E010E0DD2099F0B801012E000C880BDD
:10064000990B64D220E030E048EF51E4C4D120E0BF
:1006500030E04FE753E447D32BD26A8311C0C30184
:10066000B201B6D120E030E04FE753E43CD31BD2D7
:100670009B01772324F422273327261B370B2A8359
:10068000E982F8820F5F1F4F24960F31110591F612
:100690002FEFA21AB20AB0926B00A0926A0044DF58
:1006A00078942FDD882309F418C13BDD8F3120EECB
:1006B000920709F4C8C0A8F584352BEA920709F41B
:1006C000A2C0A8F48C3523EA920709F45CC028F490
:1006D0008D35924A09F45FC0E9C0893526EA920750
:1006E00009F4BFC08835974A09F4B4C0DFC0883424
:1006F00027EB920709F4CAC050F480352FEA92071D
:1007000009F48AC08C34934B09F4C0C0CFC085343F
:100710002AEB920709F4ACC084349B4B09F4AFC0B8
:10072000C5C085312AEE920709F44DC0A8F48B317B
:1007300024EE920709F487C028F48C31934E09F413
:1007400073C0B4C0883127EE920709F475C08631B2
:10075000994E09F448C0AAC081312EEE9207D1F11A
:1007600048F484312BEE9207F1F082319D4E09F46A
:1007700041C09CC080312FEE9207E1F08C30934F46
:1007800009F48BC093C0E0E6F0E080818F718F5F49
:10079000806E80839BC0E0E6F0E080818F718150A5
:1007A000806E808393C0E0E6F0E08381807F805F8D
:1007B00083837CC0E0E6F0E08381982F9F708051B6
:1007C000890F838373C0E0E6F0E08281807F805FE1
:1007D00082836CC0E0E6F0E08281982F9F708051A8
:1007E000890F828363C0E0E6F0E08181807F805FD3
:1007F00081835CC0E0E6F0E0818190EF980F8F701C
:10080000890F818353C0E0E6F0E08AEF838380E8BC
:10081000828382E781834AC0E0E6F0E08FEF838342
:100820008CE88283118242C0E0E6F0E08FEF8383A0
:1008300085EA828311823AC0E0E6F0E08FEF83839D
:100840008283118233C0E0E6F0E013828FEF82836F
:1008500081832CC0E0E6F0E08FEF83831282118267
:1008600025C0E0E6F0E013828FEF828311821EC084
:10087000E0E6F0E0138212828FEF818317C0E0E69A
:10088000F0E08FEF83838283818310C0E0E6F0E0A5
:100890008FEF83831282818309C081E080936D0092
:1008A00090916C00892780936C0017C010926D00A6
:1008B0000DC088819981AA81BB8181939193A19375
:1008C000B193E217F307A9F72FDE07C0E7E7F0E0DF
:1008D00023EF30E0C0E6D0E0ECCFDF91CF911F9165
:1008E0000F91FF90EF90DF90BF90AF907F906F904F
:1008F0005F904F900895D7DB20DE43DEFECF505847
:10090000BB27AA270ED0A0C169D130F06ED120F04C
:1009100031F49F3F11F41EF45EC10EF4E095E7FB45
:1009200054C1E92FB3D180F3BA1762077307840764
:10093000950718F071F49EF5CBC10EF4E0950B2EDF
:10094000BA2FA02D0B01B90190010C01CA01A00121
:100950001124FF27591B99F0593F50F4503E68F17C
:100960001A16F040A22F232F342F4427585FF3CFBD
:10097000469537952795A795F0405395C9F77EF48E
:100980001F16BA0B620B730B840BBAF09150A1F0D7
:10099000FF0FBB1F661F771F881FC2F70EC0BA0F5D
:1009A000621F731F841F48F4879577956795B795E5
:1009B000F7959E3F08F0B3CF9395880F08F09927DD
:1009C000EE0F979587950895DCD008F481E008959F
:1009D00014D1E3954AC10CD037C107D140F0FED005
:1009E00030F021F45F3F19F0F0C0511172C1F3C033
:1009F0004DD198F39923C9F35523B1F3951B550BAA
:100A0000BB27AA2762177307840738F09F5F5F4FE1
:100A1000220F331F441FAA1FA9F333D00E2E3AF022
:100A2000E0E830D091505040E695001CCAF729D03C
:100A3000FE2F27D0660F771F881FBB1F261737078B
:100A40004807AB07B0E809F0BB0B802DBF01FF27BB
:100A500093585F4F2AF09E3F510568F0B6C039C1E8
:100A60005F3FECF3983EDCF3869577956795B795F5
:100A7000F7959F5FC9F7880F911D9695879597F910
:100A80000895E1E0660F771F881FBB1F6217730789
:100A90008407BA0720F0621B730B840BBA0BEE1F9E
:100AA00088F7E095089504D06894B11112C10895B3
:100AB000F5D088F09F5790F0B92F9927B751A0F043
:100AC000D1F0660F771F881F991F1AF0BA95C9F7E2
:100AD00012C0B13081F0FCD0B1E00895F9C0672FA9
:100AE000782F8827B85F39F0B93FCCF38695779592
:100AF0006795B395D9F73EF490958095709561957B
:100B00007F4F8F4F9F4F0895E89409C097FB3EF4A5
:100B100090958095709561957F4F8F4F9F4F99234A
:100B2000A9F0F92F96E9BB279395F69587957795C8
:100B30006795B795F111F8CFFAF4BB0F11F460FF88
:100B40001BC06F5F7F4F8F4F9F4F16C0882311F0E0
:100B500096E911C0772321F09EE8872F762F05C0F4
:100B6000662371F096E8862F70E060E02AF09A958F
:100B7000660F771F881FDAF7880F9695879597F984
:100B80000895990F0008550FAA0BE0E8FEEF16161E
:100B90001706E807F907C0F012161306E407F50771
:100BA00098F0621B730B840B950B39F40A2661F0E5
:100BB000232B242B252B21F408950A2609F4A14088
:100BC000A6958FEF811D811D089597F99F6780E895
:100BD00070E060E008959FEF80EC089500240A948F
:100BE0001616170618060906089500240A94121608
:100BF0001306140605060895EECF50D0E8F3E894E6
:100C0000E0E0BB279F57F0F02AED3FE049EC06C03B
:100C1000EE0FBB0F661F771F881F28F0B23A6207DE
:100C20007307840728F0B25A620B730B840BE395A9
:100C30009A9572F7803830F49A95BB0F661F771F2C
:100C4000881FD2F79048BCC0092E0394000C11F401
:100C5000882352F0BB0F40F4BF2B11F460FF04C097
:100C60006F5F7F4F8F4F9F4F0895EF93E0FF06C058
:100C7000A2EA2AED3FE049EC5FEB53DEE5DF0F909F
:100C8000039401FC9058EEE1F0E0A6C057FD9058A7
:100C9000440F551F59F05F3F71F04795880F97FB40
:100CA000991F61F09F3F79F08795089512161306FA
:100CB0001406551FF2CF4695F1DF08C01616170629
:100CC0001806991FF1CF869571056105089408955E
:100CD000E894BB2766277727CB0197F9089551DF62
:100CE00008F48FEF08950AD0AFCF78DF28F07DDFCA
:100CF00018F0952309F069CF6ECFEBCFC7DFA8F3CB
:100D00009923D9F35523C9F3950F50E0551FAA270E
:100D1000EE27FF27BB2700240894679520F4E20FF5
:100D2000F31FB41F0A1E220F331F441FAA1F66950C
:100D3000A9F7779530F4F30FB41F0A1E121E08F4BA
:100D40006395330F441FAA1F221F769599F7879545
:100D500020F4B40F0A1E121E631F440FAA1F221F85
:100D6000331F8695A9F7862F712D602D11249F576B
:100D700050408AF0E1F088234AF0EE0FFF1FBB1FBE
:100D8000661F771F881F91505040A9F79E3F51055D
:100D900070F01BCF9ECF5F3FECF3983EDCF386955F
:100DA00077956795B795F795E7959F5FC1F7FE2B08
:100DB000880F911D9695879597F908959F3F31F07B
:100DC000915020F4879577956795B795880F911D79
:100DD0009695879597F908959F938F937F936F9337
:100DE000FF93EF939B01AC017EDFEF91FF9105D064
:100DF0002F913F914F915F9176CFDF93CF931F93C8
:100E00000F93FF92EF92DF927B018C01689405C0F3
:100E1000DA2EEF0173DFFE01E894A591259135915B
:100E200045915591AEF3EF017CDDFE019701A801DC
:100E3000DA9479F7DF90EF90FF900F911F91CF91A7
:080E4000DF910895F894FFCF43
:080E4800FF00000000000000A3
:040000050080006413
:00000001FF
