:100000001DC037C0A3C035C094C433C032C031C096
:1000100030C02FC02EC02DC02CC02BC02AC005A8B8
:100020004CCDB2D44EB93836A9020C50B99186885D
:10003000083CA6AAAA2ABE000000803F11241FBEC9
:10004000CFE5D1E0DEBFCDBF10E0A0E6B0E0E6EF47
:10005000FFE002C005900D92A836B107D9F720E065
:10006000A8E6B0E001C01D92A03FB207E1F716D5A7
:10007000C0C7C6CF87B3866087BBC1986C9A089506
:100080009C01FC0170E041E153E1CF01821B930B25
:100090008617970744F481918FB998E04DB95DB9FF
:1000A0009150E1F7F2CF0895CF93DF93CDB7DEB74C
:1000B00087E390E027E330E0F90120812860FC012C
:1000C000208385E390E025E330E0F9012081206181
:1000D000FC0120838BE590E02BE530E0F9012081E5
:1000E0002062FC0120838FE590E02FE530E0F901EC
:1000F00020812068FC01208310926B000000DF91BA
:10010000CF910895CF93DF93CDB7DEB780916B0089
:10011000882321F010926B0081E001C080E0DF9124
:10012000CF910895CF93DF93CDB7DEB710926B00D8
:100130008091700090917100A0917200B091730055
:10014000CD01AA27BB27DF91CF9108951F920F926F
:1001500000905F000F9211242F933F934F935F9372
:100160006F937F938F939F93AF93BF93EF93FF937F
:10017000CF93DF93CDB7DEB7C254D109DEBFCDBF79
:1001800088E390E028E330E0F90120812860FC0159
:10019000208386E390E0FC018081882F90E08071CD
:1001A0009927892B09F077C210926C0010926D008C
:1001B00010926E0010926F00000086E390E0FC0148
:1001C0008081882F90E080719927892BB1F310925C
:1001D00068000AC0809168008F5F809368008091FA
:1001E0006800882309F459C286E390E0FC0180810D
:1001F000882F90E080719927892B61F71A821982E4
:1002000037C180916C0090916D00A0916E00B0910B
:100210006F00B695A7959795879580936C009093FE
:100220006D00A0936E00B0936F00000086E390E035
:10023000FC018081882F90E080719927892BB1F390
:1002400080E090ECACE0B4E48F839887A987BA870C
:100250002BEA3AEA4AE25DE36F81788589859A85DF
:1002600019D6DC01CB018B879C87AD87BE8720E048
:1002700030E040E05DE36F81788589859A850AD614
:10028000DC01CB018F87988BA98BBA8B20E030E003
:1002900040E85FE36B857C858D859E856CD48823E3
:1002A0001CF481E08B8BA7C020E03FEF4FE757E4C1
:1002B0006F85788989899A89E9D518160CF074C0F8
:1002C00020E030E04AE754E46F81788589859A859B
:1002D00059D4DC01CB018C8B9D8BAE8BBF8B20E086
:1002E00030E04AEF51E46C897D898E899F89D2D5AF
:1002F000DC01CB01888F998FAA8FBB8F20E030E083
:1003000040E85FE3688D798D8A8D9B8D34D4882396
:100310002CF481E090E09D8F8C8F3BC020E03FEF7C
:100320004FE757E4688D798D8A8D9B8DAFD5181670
:100330003CF520E030E040E251E46C897D898E8913
:100340009F89A8D5DC01CB01BC01CD0188D4DC019B
:10035000CB019D8F8C8F0FC083E090E09F8F8E8F9D
:100360008E8D9F8D0197F1F79F8F8E8F8C8D9D8D38
:1003700001979D8F8C8F8C8D9D8D892B69F73BC04C
:10038000688D798D8A8D9B8D6AD4DC01CB019D8F20
:100390008C8F8C8D9D8D99A388A388A199A101979D
:1003A000F1F799A388A327C020E030E04FE753E49A
:1003B0006B857C858D859E8569D51816A4F46F851F
:1003C000788989899A894BD4DC01CB019BA38AA3C4
:1003D0008AA19BA19DA38CA38CA19DA10197F1F75C
:1003E0009DA38CA30EC06B857C858D859E8537D49F
:1003F000DC01CB018B8B8B898EA38EA18A95F1F7C3
:100400008EA386E390E0FC018081882F90E08071CC
:100410009927892B89F080916C0090916D00A091B3
:100420006E00B0916F00B06880936C0090936D0087
:10043000A0936E00B0936F00109268000AC0809184
:1004400068008F5F8093680080916800882309F4BA
:1004500026C186E390E0FC018081882F90E08071C6
:100460009927892B61F789819A8101969A838983DB
:1004700089819A8180970CF4C4CE80E090ECACE046
:10048000B4E48B839C83AD83BE832BEA3AEA4AE2D1
:100490005DE36B817C818D819E81FCD4DC01CB018D
:1004A0008FA398A7A9A7BAA720E030E040E05DE3BA
:1004B0006B817C818D819E81EDD4DC01CB018BA78A
:1004C0009CA7ADA7BEA720E030E040E85FE36FA1A6
:1004D00078A589A59AA54FD388231CF481E08FA71E
:1004E000B3C020E03FEF4FE757E46BA57CA58DA597
:1004F0009EA5CCD418160CF074C020E030E04AE77A
:1005000054E46B817C818D819E813CD3DC01CB01E5
:1005100088AB99ABAAABBBAB20E030E04AEF51E42B
:1005200068A979A98AA99BA9B5D4DC01CB018CABB8
:100530009DABAEABBFAB20E030E040E85FE36CA921
:100540007DA98EA99FA917D388232CF481E090E080
:1005500099AF88AF3BC020E03FEF4FE757E46CA96D
:100560007DA98EA99FA992D418163CF520E030E011
:1005700040E251E468A979A98AA99BA98BD4DC013E
:10058000CB01BC01CD016BD3DC01CB0199AF88AFAE
:100590000FC083E090E09BAF8AAF8AAD9BAD01971F
:1005A000F1F79BAF8AAF88AD99AD019799AF88AF4E
:1005B00088AD99AD892B69F747C06CA97DA98EA933
:1005C0009FA94DD3DC01CB0199AF88AF88AD99AD20
:1005D0009DAF8CAF8CAD9DAD0197F1F79DAF8CAF0A
:1005E00033C020E030E04FE753E46FA178A589A540
:1005F0009AA54CD4181604F56BA57CA58DA59EA5CF
:100600002ED3DC01CB019FAF8EAFCE01805C9F4F1C
:100610002EAD3FADFC0131832083CE01805C9F4F26
:10062000FC01808191810197F1F79E01205C3F4F91
:10063000F901918380831BC06FA178A589A59AA534
:100640000ED3DC01CB018FA7CE018E5B9F4F2FA570
:10065000FC012083CE018E5B9F4FFC018081282FFF
:100660002A95F1F7CE018E5B9F4FFC01208380918C
:100670006C0090916D00A0916E00B0916F0080931E
:10068000700090937100A0937200B093730081E0AA
:1006900080936B0005C0000003C0000001C0000093
:1006A00000008AE590E02AE530E0F901208120622F
:1006B000FC01208388E390E028E330E0F901208109
:1006C000277FFC0120830000CE5BDF4F0FB6F8943C
:1006D000DEBF0FBECDBFDF91CF91FF91EF91BF91F4
:1006E000AF919F918F917F916F915F914F913F91CA
:1006F0002F910F9000925F000F901F90189564E06B
:1007000084E690E0BDDC6CE784E790E0B9CC1F9311
:10071000CF93DF93AFDC64E084E690E0B1DCC4E724
:10072000D0E01FEF18831B831A82198264E0CE0188
:10073000A7DC249680E0C03FD807A1F780B78A6085
:1007400080BFDF91CF911F91089584342BEB9207E6
:1007500009F4B4C008F042C084352BEA920709F4CA
:100760008DC0F0F48C3523EA920709F47FC048F479
:100770008D35924A09F0CAC0809160008F71815016
:1007800079C0893526EA920709F494C08835974ADA
:1007900009F0BCC08FEF80936300109262007CC0B0
:1007A0008C3423EB920709F48DC048F480359F4ABE
:1007B00009F0ACC08FEF809363008CE86BC0883485
:1007C00027EB920709F47EC085349A4B09F09EC04E
:1007D00010926300109262008FEF69C085312AEE9B
:1007E000920709F483C0C8F48C3123EE920709F410
:1007F0004DC028F48F31904E09F454C087C08B311E
:1008000024EE920709F44EC08631994E09F07EC05D
:1008100080916100807F805F77C081312EEE9207EA
:1008200009F469C080F484312BEE920709F450C0BA
:1008300082319D4E09F06AC08091610090EF980F5F
:100840008F70890F61C080312FEE920709F445C087
:100850008C30934F09F05AC089B7846089BF90915A
:100860006A0081E0892780936A0050C0809160000F
:100870008F718F5F806E8093600048C08AEF809395
:10088000630080E88093620082E711C08FEF80935D
:10089000630085EA809362001092610089B78B7FC4
:1008A00089BF34C0109263008FEF80936200809301
:1008B0006100F4CF109263008FEFECCF8FEF809345
:1008C0006300F3CF8FEF8093630010926200EFCF4D
:1008D00080916300807F805F06C080916300982FC5
:1008E0009F708051890F8093630010C080916200D7
:1008F000807F805F06C080916200982F9F7080513A
:10090000890F8093620002C080936100E4E7F0E009
:100910008091600090916100A0916200B0916300AD
:1009200081939193A193B19380E0E03FF80781F721
:10093000E6CE1F920F920FB60F9211248F929F92C4
:10094000AF92BF92CF92DF92EF92FF920F931F93DD
:100950002F933F934F935F936F937F938F939F93C7
:10096000AF93BF93CF93DF93EF93FF93C0906A0051
:10097000D09069006D2D70E080E090E09ED19B01E9
:10098000AC0195D02BED3FE049E450E483D220E068
:1009900030E040E85BE37ED24B015C0122E93AE0C3
:1009A00046E050E484D0EBD020E030E04FE753E461
:1009B00071D250D19B0177FF04C022273327261B19
:1009C000370B022F22E93AE046E850E4C501B401B2
:1009D0006ED0D5D020E030E04FE753E45BD23AD17F
:1009E0009B0177FF04C022273327261B370B122FCA
:1009F000C4E7D0E0E12CF12CCC2099F0B7010F2C0A
:100A0000000C880B990B59D120E030E048EF51E4FD
:100A1000B9D020E030E04FE753E43CD220D16B83E3
:100A200011C0C501B401ABD020E030E04FE753E482
:100A300031D210D19B0177FF04C022273327261B18
:100A4000370B2B830A8319838FEFE81AF80A249651
:100A50008FE1E816F10481F681E08D0D8093690045
:100A60004EDEFF91EF91DF91CF91BF91AF919F91BA
:100A70008F917F916F915F914F913F912F911F9136
:100A80000F91FF90EF90DF90CF90BF90AF909F902D
:100A90008F900F900FBE0F901F90189505DB37DEDB
:100AA00031DB8823E9F33EDB50DEFACF5058BB2719
:100AB000AA270ED0A0C169D130F06ED120F031F458
:100AC0009F3F11F41EF45EC10EF4E095E7FB54C1A4
:100AD000E92FB3D180F3BA1762077307840795072C
:100AE00018F071F49EF5CBC10EF4E0950B2EBA2FE1
:100AF000A02D0B01B90190010C01CA01A001112424
:100B0000FF27591B99F0593F50F4503E68F11A16CF
:100B1000F040A22F232F342F4427585FF3CF469560
:100B200037952795A795F0405395C9F77EF41F1682
:100B3000BA0B620B730B840BBAF09150A1F0FF0F4C
:100B4000BB1F661F771F881FC2F70EC0BA0F621F38
:100B5000731F841F48F4879577956795B795F79528
:100B60009E3F08F0B3CF9395880F08F09927EE0FBA
:100B7000979587950895DCD008F481E0089514D105
:100B8000E3954AC10CD037C107D140F0FED030F018
:100B900021F45F3F19F0F0C0511172C1F3C04DD183
:100BA00098F39923C9F35523B1F3951B550BBB2734
:100BB000AA2762177307840738F09F5F5F4F220FE1
:100BC000331F441FAA1FA9F333D00E2E3AF0E0E8DA
:100BD00030D091505040E695001CCAF729D0FE2F26
:100BE00027D0660F771F881FBB1F261737074807B8
:100BF000AB07B0E809F0BB0B802DBF01FF2793586E
:100C00005F4F2AF09E3F510568F0B6C039C15F3F83
:100C1000ECF3983EDCF3869577956795B795F79555
:100C20009F5FC9F7880F911D9695879597F908954D
:100C3000E1E0660F771F881FBB1F621773078407E9
:100C4000BA0720F0621B730B840BBA0BEE1F88F7F8
:100C5000E095089504D06894B11112C10895F5D0BB
:100C600088F09F5790F0B92F9927B751A0F0D1F095
:100C7000660F771F881F991F1AF0BA95C9F712C01F
:100C8000B13081F0FCD0B1E00895F9C0672F782F22
:100C90008827B85F39F0B93FCCF38695779567958B
:100CA000B395D9F73EF490958095709561957F4FF7
:100CB0008F4F9F4F0895E89409C097FB3EF490959D
:100CC0008095709561957F4F8F4F9F4F9923A9F025
:100CD000F92F96E9BB279395F695879577956795B4
:100CE000B795F111F8CFFAF4BB0F11F460FF1BC0F8
:100CF0006F5F7F4F8F4F9F4F16C0882311F096E98B
:100D000011C0772321F09EE8872F762F05C0662338
:100D100071F096E8862F70E060E02AF09A95660FF1
:100D2000771F881FDAF7880F9695879597F90895AA
:100D3000990F0008550FAA0BE0E8FEEF16161706EC
:100D4000E807F907C0F012161306E407F50798F054
:100D5000621B730B840B950B39F40A2661F0232B6D
:100D6000242B252B21F408950A2609F4A140A695E9
:100D70008FEF811D811D089597F99F6780E870E0CE
:100D800060E008959FEF80EC089500240A94161601
:100D9000170618060906089500240A941216130669
:100DA000140605060895EECF50D0E8F3E894E0E08D
:100DB000BB279F57F0F02AED3FE049EC06C0EE0F4D
:100DC000BB0F661F771F881F28F0B23A62077307B0
:100DD000840728F0B25A620B730B840BE3959A9543
:100DE00072F7803830F49A95BB0F661F771F881F03
:100DF000D2F79048BCC0092E0394000C11F488234C
:100E000052F0BB0F40F4BF2B11F460FF04C06F5FC2
:100E10007F4F8F4F9F4F0895EF93E0FF06C0A2EAE8
:100E20002AED3FE049EC5FEB53DEE5DF0F900394E2
:100E300001FC9058EEE1F0E0A6C057FD9058440F39
:100E4000551F59F05F3F71F04795880F97FB991F29
:100E500061F09F3F79F087950895121613061406E6
:100E6000551FF2CF4695F1DF08C016161706180673
:100E7000991FF1CF86957105610508940895E8944E
:100E8000BB2766277727CB0197F9089551DF08F430
:100E90008FEF08950AD0AFCF78DF28F07DDF18F00C
:100EA000952309F069CF6ECFEBCFC7DFA8F3992365
:100EB000D9F35523C9F3950F50E0551FAA27EE2704
:100EC000FF27BB2700240894679520F4E20FF31F47
:100ED000B41F0A1E220F331F441FAA1F6695A9F7CD
:100EE000779530F4F30FB41F0A1E121E08F46395B1
:100EF000330F441FAA1F221F769599F7879520F478
:100F0000B40F0A1E121E631F440FAA1F221F331F95
:100F10008695A9F7862F712D602D11249F5750407B
:100F20008AF0E1F088234AF0EE0FFF1FBB1F661F17
:100F3000771F881F91505040A9F79E3F510570F0D0
:100F40001BCF9ECF5F3FECF3983EDCF38695779501
:100F50006795B795F795E7959F5FC1F7FE2B880FCB
:100F6000911D9695879597F908959F3F31F091507F
:100F700020F4879577956795B795880F911D96957D
:100F8000879597F908959F938F937F936F93FF931E
:100F9000EF939B01AC017EDFEF91FF9105D02F9184
:100FA0003F914F915F9176CFDF93CF931F930F9334
:100FB000FF92EF92DF927B018C01689405C0DA2EDC
:100FC000EF0173DFFE01E894A591259135914591DC
:100FD0005591AEF3EF017CDDFE019701A801DA9493
:100FE00079F7DF90EF90FF900F911F91CF91DF91F4
:060FF0000895F894FFCF04
:080FF600FF00000000000000F4
:040000050080006413
:00000001FF
