:100000001DC037C0A8C035C0F6C233C032C031C031
:1000100030C02FC02EC02DC02CC02BC02AC005A8B8
:100020004CCDB2D44EB93836A9020C50B99186885D
:10003000083CA6AAAA2ABE000000803F11241FBEC9
:10004000CFE5D1E0DEBFCDBF10E0A0E6B0E0ECE54B
:10005000FCE002C005900D92A836B107D9F720E068
:10006000A8E6B0E001C01D92A03FB207E1F775D34A
:10007000F3C5C6CF9F9390E09395F1F79F910895B4
:1000800087B3866087BBC1986C9A0895662381F018
:10009000FC01AC01460F511D31E123E191919FB963
:1000A00098E03DB92DB99150E1F7E417F507B1F7A4
:1000B0000895CF93DF93CDB7DEB787E390E027E3D2
:1000C00030E0F90120812860FC01208385E390E085
:1000D00025E330E0F90120812061FC0120838BE5DC
:1000E00090E02BE530E0F90120812062FC012083C3
:1000F0008FE590E02FE530E0F90120812068FC01D8
:10010000208310926B000000DF91CF910895CF9370
:10011000DF93CDB7DEB780916B00882321F010927A
:100120006B0081E001C080E0DF91CF910895CF9313
:10013000DF93CDB7DEB710926B0080917000909185
:100140007100A0917200B0917300CD01AA27BB2766
:10015000DF91CF9108951F920F9200905F000F9250
:1001600011242F933F934F935F936F937F938F93BC
:100170009F93AF93BF93EF93FF93CF93DF9300D001
:10018000CDB7DEB788E390E028E330E0F9012081C5
:100190002860FC01208386E390E0FC018081882FA9
:1001A00090E080719927892B09F09DC010926C0016
:1001B00010926D0010926E0010926F00000086E3A6
:1001C00090E0FC018081882F90E080719927892B35
:1001D000B1F3109268000AC0809168008F5F80932D
:1001E000680080916800882309F47FC086E390E06E
:1001F000FC018081882F90E080719927892B61F71D
:100200001A82198256C080916C0090916D00A09165
:100210006E00B0916F00B695A795979587958093DE
:100220006C0090936D00A0936E00B0936F0000007F
:1002300086E390E0FC018081882F90E0807199270F
:10024000892BB1F317DF86E390E0FC018081882FD2
:1002500090E080719927892B89F080916C009091B2
:100260006D00A0916E00B0916F00B06880936C003B
:1002700090936D00A0936E00B0936F001092680091
:1002800009C0809168008F5F80936800809168004A
:10029000882369F186E390E0FC018081882F90E05B
:1002A00080719927892B69F789819A8101969A83B0
:1002B000898389819A8180970CF4A5CFDBDE8091B8
:1002C0006C0090916D00A0916E00B0916F008093D2
:1002D000700090937100A0937200B093730081E05E
:1002E00080936B0005C0000003C0000001C0000047
:1002F00000008AE590E02AE530E0F90120812062E3
:10030000FC01208388E390E028E330E0F9012081BC
:10031000277FFC01208300000F900F90DF91CF9189
:10032000FF91EF91BF91AF919F918F917F916F91CD
:100330005F914F913F912F910F9000925F000F902E
:100340001F90189564E084E690E0A0DE6CE784E7F7
:1003500090E09CDE0895EF92FF921F93CF93DF937E
:100360008FDE64E084E690E091DEC4E7D0E00F2EFB
:10037000F0EFEF2EF0E0FF2EF02D1FEF18831B8320
:100380001A82198264E0CE0181DE2496CE15DF0543
:10039000A9F780B78A6080BFDF91CF911F91FF904E
:1003A000EF900895CF93DF9384342BEB920709F4F9
:1003B000C0C080F584352BEA920709F470C0A8F418
:1003C0008C3523EA920709F45AC028F48D35924AF5
:1003D00009F45DC0FBC0893526EA920709F495C08F
:1003E0008835974A09F487C0F1C08C3423EB920713
:1003F00009F4A9C028F480359F4A09F45CC0E6C01E
:10040000883427EB920709F49EC085349A4B09F48F
:1004100086C0DCC085312AEE920709F4AEC0A8F48C
:100420008C3123EE920709F451C028F48F31904E9D
:1004300009F457C0CBC08B3124EE920709F451C0A8
:100440008631994E09F4A9C0C1C081312EEE9207C0
:1004500009F49AC050F484312BEE920709F47DC060
:1004600082319D4E09F4A0C0B1C080312FEE9207B9
:1004700009F47AC08C30934F09F49FC0A7C0E0E61E
:10048000F0E080818F718F5F806E80839FC0E0E697
:10049000F0E080818F718150806E808397C0E0E6AC
:1004A000F0E08AEF838380E8828382E7818389B7E3
:1004B0008B7F89BF8BC0E0E6F0E08FEF83838CE811
:1004C0008283118289B78B7F89BF80C0E0E6F0E02C
:1004D0008FEF838385EA8283118289B78B7F89BFFF
:1004E00075C0E0E6F0E013828FEF8283818389B7E5
:1004F0008B7F89BF6BC0E0E6F0E08FEF83831282D1
:10050000118289B78B7F89BF61C0E0E6F0E013827A
:100510008FEF8283118289B78B7F89BF57C0E0E656
:10052000F0E0138212828FEF818389B78B7F89BFBE
:100530004DC0E0E6F0E08FEF83838283818389B74B
:100540008B7F89BF43C0E0E6F0E08FEF83831282A8
:10055000818389B78B7F89BF39C0E0E6F0E0838172
:10056000807F805F838332C0E0E6F0E08381982F54
:100570009F708051890F838329C0E0E6F0E082817B
:10058000807F805F828322C0E0E6F0E08281982F46
:100590009F708051890F828319C0E0E6F0E081816D
:1005A000807F805F818312C0E0E6F0E0818190EF80
:1005B000980F8F70890F818309C089B7846089BFC4
:1005C00090916A0081E0892780936A00E4E7F0E077
:1005D00020EF30E0C0E6D0E088819981AA81BB811C
:1005E00081939193A193B193E217F307A9F7AADE40
:1005F000DF91CF91089578941F920F920FB60F92CA
:1006000011248F929F92AF92BF92CF92DF92EF927E
:10061000FF920F931F932F933F934F935F936F938B
:100620007F938F939F93AF93BF93CF93DF93EF937A
:10063000FF93D0906A00C09069006C2D70E080E05C
:1006400090E096D19B01AC0191D02BED3FE049E4C5
:1006500050E453D220E030E040E85BE34ED24B015F
:100660005C0122E93AE046E050E480D0E3D020E0AB
:1006700030E04FE753E441D248D17B01772324F4A3
:10068000EE24FF24E61AF70A22E93AE046E850E4AD
:10069000C501B4016BD0CED020E030E04FE753E489
:1006A0002CD233D19B01772324F422273327261B16
:1006B000370BF22EC5E7D0E000E010E0DD2099F026
:1006C000B801012E000C880B990B52D120E030E0CC
:1006D00048EF51E4B2D020E030E04FE753E40DD2D0
:1006E00019D16A8311C0C501B401A4D020E030E063
:1006F0004FE753E402D209D19B01772324F4222748
:100700003327261B370B2A83E982F8820F5F1F4F9E
:1007100024960F31110591F6C394C092690012DE40
:10072000FF91EF91DF91CF91BF91AF919F918F9109
:100730007F916F915F914F913F912F911F910F91F9
:10074000FF90EF90DF90CF90BF90AF909F908F90F1
:100750000F900FBE0F901F901895ABDCFCDDD7DC1F
:100760008823E9F3E4DC1EDEFACF5058BB27AA2722
:100770000ED078C141D130F046D120F031F49F3F06
:1007800011F41EF436C10EF4E095E7FB2CC1E92FFD
:100790008BD180F3BA17620773078407950718F0A7
:1007A00071F49EF5A3C10EF4E0950B2EBA2FA02D87
:1007B0000B01B90190010C01CA01A0011124FF270E
:1007C000591B99F0593F50F4503E68F11A16F04009
:1007D000A22F232F342F4427585FF3CF4695379508
:1007E0002795A795F0405395C9F77EF41F16BA0BCD
:1007F000620B730B840BBAF09150A1F0FF0FBB1F7B
:10080000661F771F881FC2F70EC0BA0F621F731FC3
:10081000841F48F4879577956795B795F7959E3F20
:1008200008F0B3CF9395880F08F09927EE0F9795AE
:1008300087950895F0D0E39526C10CD013C1E3D07D
:1008400040F0DAD030F021F45F3F19F0CCC0511104
:100850004EC1CFC029D198F39923C9F35523B1F3E1
:10086000951B550BBB27AA2762177307840738F01F
:100870009F5F5F4F220F331F441FAA1FA9F333D07E
:100880000E2E3AF0E0E830D091505040E695001C32
:10089000CAF729D0FE2F27D0660F771F881FBB1FEE
:1008A000261737074807AB07B0E809F0BB0B802DC8
:1008B000BF01FF2793585F4F2AF09E3F510568F014
:1008C00092C015C15F3FECF3983EDCF386957795B7
:1008D0006795B795F7959F5FC9F7880F911D969516
:1008E000879597F90895E1E0660F771F881FBB1F72
:1008F000621773078407BA0720F0621B730B840B1F
:10090000BA0BEE1F88F7E095089504D06894B111F2
:10091000EEC00895D1D088F09F5790F0B92F992755
:10092000B751A0F0D1F0660F771F881F991F1AF0FA
:10093000BA95C9F712C0B13081F0D8D0B1E00895AE
:10094000D5C0672F782F8827B85F39F0B93FCCF32F
:10095000869577956795B395D9F73EF490958095F0
:10096000709561957F4F8F4F9F4F0895E89409C010
:1009700097FB3EF490958095709561957F4F8F4FD2
:100980009F4F9923A9F0F92F96E9BB279395F695E8
:10099000879577956795B795F111F8CFFAF4BB0F66
:1009A00011F460FF1BC06F5F7F4F8F4F9F4F16C0CA
:1009B000882311F096E911C0772321F09EE8872F54
:1009C000762F05C0662371F096E8862F70E060E010
:1009D0002AF09A95660F771F881FDAF7880F969589
:1009E000879597F9089597F99F6780E870E060E030
:1009F00008959FEF80EC089500240A9416161706B8
:100A000018060906089500240A94121613061406FF
:100A100005060895EECF50D0E8F3E894E0E0BB2758
:100A20009F57F0F02AED3FE049EC06C0EE0FBB0FF8
:100A3000661F771F881F28F0B23A62077307840782
:100A400028F0B25A620B730B840BE3959A9572F7F8
:100A5000803830F49A95BB0F661F771F881FD2F736
:100A60009048B8C0092E0394000C11F4882352F06A
:100A7000BB0F40F4BF2B11F460FF04C06F5F7F4FCA
:100A80008F4F9F4F0895EF93E0FF06C0A2EA2AED33
:100A90003FE049EC5FEB7BDEE5DF0F90039401FC68
:100AA0009058EEE1F0E0A2C057FD9058440F551F5A
:100AB00059F05F3F71F04795880F97FB991F61F0E0
:100AC0009F3F79F087950895121613061406551F57
:100AD000F2CF4695F1DF08C0161617061806991FC3
:100AE000F1CF86957105610508940895E894BB27B8
:100AF00066277727CB0197F908950AD0B3CF7CDF1B
:100B000028F081DF18F0952309F06DCF72CFEFCF79
:100B1000CBDFA8F39923D9F35523C9F3950F50E000
:100B2000551FAA27EE27FF27BB27002408946795A7
:100B300020F4E20FF31FB41F0A1E220F331F441FBD
:100B4000AA1F6695A9F7779530F4F30FB41F0A1E14
:100B5000121E08F46395330F441FAA1F221F7695B7
:100B600099F7879520F4B40F0A1E121E631F440FD5
:100B7000AA1F221F331F8695A9F7862F712D602D7E
:100B800011249F5750408AF0E1F088234AF0EE0F7D
:100B9000FF1FBB1F661F771F881F91505040A9F78A
:100BA0009E3F510570F01FCFA2CF5F3FECF3983E00
:100BB000DCF3869577956795B795F795E7959F5FF1
:100BC000C1F7FE2B880F911D9695879597F908958B
:100BD0009F3F31F0915020F4879577956795B795B1
:100BE000880F911D9695879597F908959F938F93F8
:100BF0007F936F93FF93EF939B01AC017EDFEF91A7
:100C0000FF9105D02F913F914F915F9176CFDF9368
:100C1000CF931F930F93FF92EF92DF927B018C0192
:100C2000689405C0DA2EEF0173DFFE01E894A59108
:100C30002591359145915591AEF3EF01A8DDFE0167
:100C40009701A801DA9479F7DF90EF90FF900F9168
:0C0C50001F91CF91DF910895F894FFCF21
:080C5C00FF0000000000000091
:040000050080006413
:00000001FF
