:100000000EC328C38BC326C39EC448C623C322C3C2
:1000100021C320C31FC31EC31DC31CC31BC3121196
:10002000100F0F0E0D0C0C0B0B0A0909080807071F
:100030000606050505040403030303020202020188
:1000400001010101010101010101010101010101A0
:100050000101010202020202030303040404050574
:1000600006060707080809090A0A0B0C0C0D0E0EF4
:100070000F1010111213141415161718191A1B1C2F
:100080001D1E1F202122232425262728292B2C2D25
:100090002E2F31323334363738393B3C3D3F4041E7
:1000A00043444547484A4B4D4E4F5152545557587B
:1000B0005A5B5D5E606163646667696A6C6D6F70F0
:1000C00072747577787A7B7D7E8082838586888955
:1000D0008B8C8E909193949697999A9C9D9FA0A2B9
:1000E000A3A5A6A8A9ABACAEAFB1B2B3B5B6B8B92B
:1000F000BABCBDBFC0C1C3C4C5C6C8C9CACCCDCEB9
:10010000CFD0D2D3D4D5D6D7D9DADBDCDDDEDFE071
:10011000E1E2E3E4E5E6E7E8E9E9EAEBECEDEDEE60
:10012000EFF0F0F1F2F3F3F4F4F5F6F6F7F7F8F890
:10013000F9F9FAFAFAFBFBFCFCFCFCFDFDFDFDFE07
:10014000FEFEFEFEFEFEFEFEFEFEFEFEFEFEFEFECF
:10015000FEFEFEFDFDFDFDFDFCFCFCFBFBFBFAFADB
:10016000F9F9F8F8F7F7F6F6F5F5F4F3F3F2F1F13B
:10017000F0EFEFEEEDECEBEBEAE9E8E7E6E5E4E3E0
:10018000E2E1E0DFDEDDDCDBDAD9D8D7D6D4D3D2CA
:10019000D1D0CECDCCCBC9C8C7C6C4C3C2C0BFBEE8
:1001A000BCBBBAB8B7B5B4B2B1B0AEADABAAA8A734
:1001B000A5A4A2A19F9E9C9B999896959392908F9F
:1001C0008D8B8A8887858482817F7D7C7A7977761A
:1001D0007473716F6E6C6B696866656362605F5D96
:1001E0005C5A595756545351504E4D4C4A49474604
:1001F000454342403F3E3C3B3A3937363533323156
:10020000302F2D2C2B2A2928262524232221201F7C
:100210001E1D1C1B1A191817161615141312EDEDB6
:10022000ECEBEAE9E9E8E7E6E5E4E3E2E1E0DFDE7A
:10023000DDDCDBDAD9D7D6D5D4D3D2D0CFCECDCC76
:10024000CAC9C8C6C5C4C3C1C0BFBDBCBAB9B8B6A7
:10025000B5B3B2B1AFAEACABA9A8A6A5A3A2A09FFF
:100260009D9C9A999796949391908E8C8B89888671
:10027000858382807E7D7B7A7877757472706F6DEE
:100280006C6A696766646361605E5D5B5A58575566
:100290005452514F4E4D4B4A484745444341403FCD
:1002A0003D3C3B39383736343332312F2E2D2C2B11
:1002B000292827262524232221201F1E1D1C1B1A26
:1002C0001918171615141413121110100F0E0E0D05
:1002D0000C0C0B0A0A09090808070706060505049D
:1002E00004040303030202020202010101010101ED
:1002F00001010101010101010101010101010202EC
:1003000002020303030304040505050606070708A4
:100310000809090A0B0B0C0C0D0E0F0F101112120D
:1003200013141516161718191A1B1C1D1E1F202131
:10033000222324252628292A2B2C2D2F3031323315
:10034000353637393A3B3C3E3F40424345464749C4
:100350004A4C4D4E505153545657595A5C5D5F604C
:100360006263656668696B6C6E6F717374767779BA
:100370007A7C7D7F8182848587888A8B8D8F90921D
:1003800093959698999B9C9E9FA1A2A4A5A7A8AA85
:10039000ABADAEB0B1B2B4B5B7B8BABBBCBEBFC0FE
:1003A000C2C3C4C6C7C8C9CBCCCDCED0D1D2D3D49A
:1003B000D6D7D8D9DADBDCDDDEDFE0E1E2E3E4E565
:1003C000E6E7E8E9EAEBEBECEDEEEFEFF0F1F1F266
:1003D000F3F3F4F5F5F6F6F7F7F8F8F9F9FAFAFBAE
:1003E000FBFBFCFCFCFDFDFDFDFDFEFEFEFEFEFE3E
:1003F000FEFEFEFEFEFEFEFEFEFEFEFEFEFEFDFD1F
:10040000FDFDFCFCFCFCFBFBFAFAFAF9F9F8F8F745
:10041000F7F6F6F5F4F4F3F3F2F1F0F0EFEE808195
:1004200083848687898A8C8D8F9192949597989AE8
:100430009B9D9EA0A1A3A4A6A7A9AAACADAFB0B254
:10044000B3B4B6B7B9BABBBDBEBFC1C2C3C5C6C7D8
:10045000C9CACBCCCECFD0D1D2D4D5D6D7D8D9DA81
:10046000DBDDDEDFE0E1E2E3E4E5E6E6E7E8E9EA5A
:10047000EBECECEDEEEFF0F0F1F2F2F3F4F4F5F575
:10048000F6F7F7F8F8F9F9F9FAFAFBFBFBFCFCFCD4
:10049000FDFDFDFDFEFEFEFEFEFEFEFEFEFEFFFE7F
:1004A000FEFEFEFEFEFEFEFEFEFDFDFDFDFCFCFC76
:1004B000FBFBFBFAFAF9F9F9F8F8F7F7F6F5F5F4BA
:1004C000F4F3F2F2F1F0F0EFEEEDECECEBEAE9E848
:1004D000E7E6E6E5E4E3E2E1E0DFDEDDDBDAD9D81A
:1004E000D7D6D5D4D2D1D0CFCECCCBCAC9C7C6C52A
:1004F000C3C2C1BFBEBDBBBAB9B7B6B4B3B2B0AF69
:10050000ADACAAA9A7A6A4A3A1A09E9D9B9A9897CB
:10051000959492918F8D8C8A898786848381807E41
:100520007C7B797876757372706E6D6B6A686765BF
:100530006462615F5E5C5B595856555352504F4D33
:100540004C4B49484645444241403E3D3C3A39388F
:100550003635343331302F2E2D2B2A2928272625C6
:10056000242221201F1E1D1C1B1A191918171615CD
:100570001413131211100F0F0E0D0D0C0B0B0A0A92
:100580000908080707060606050504040403030313
:100590000202020201010101010101010101010147
:1005A0000101010101010101010202020203030331
:1005B000040404050506060607070808090A0A0BCD
:1005C0000B0C0D0D0E0F0F1011121313141516171F
:1005D0001819191A1B1C1D1E1F202122242526272D
:1005E00028292A2B2D2E2F30313334353638393AFD
:1005F0003C3D3E40414244454648494B4C4D4F509E
:100600005253555658595B5C5E5F6162646567681A
:100610006A6B6D6E707273757678797B7C7E11244F
:100620001FBECFE5D1E0DEBFCDBF10E0A0E6B0E059
:10063000E6E8FDE002C005900D92AC36B107D9F7AF
:1006400020E0ACE6B0E001C01D92A638B207E1F7A9
:1006500002D097C3D5CCCF93DF9300D0CDB7DEB710
:10066000C3D109D0CE01019644D08111FBCF89813D
:100670009A81D8D1F7CF10927A0010927B00109215
:100680007C0010927D0010927F0010927E001092EC
:1006900080001092810010928200109283001092CC
:1006A0006C0010926D0010926E0010926F0010920C
:1006B00070001092710010927200109273001092EC
:1006C00074001092750010927600109277008FB728
:1006D0008F778FBF8BB780628BBFAB9A89B78460EF
:1006E00089BF1FBC80B7846080BF8FB780688FBF11
:1006F0000895FC0190917F00911102C08FEF089541
:1007000080917A0090917B00A0917C00B0917D0057
:10071000B183A08310927F0080E008951F920F9212
:100720000FB60F9211240F931F932F933F934F9364
:100730005F936F937F938F939F93AF93BF93EF9349
:100740002FB58091800090918100A0918200B0919E
:100750008300BA2FA92F982F8827820F911DA11DE2
:10076000B11D8093740090937500A0937600B093B0
:10077000770040916C0050916D0060916E00709117
:100780006F00841B950BA60BB70B809370009093A2
:100790007100A0937200B093730098B380E1892731
:1007A00088BB80917E00833008F040C0813009F41E
:1007B00092C0823009F076C08091700090917100F3
:1007C000A0917200B0917300805A9F40A109B109B5
:1007D000893E9340A105B10510F4B39BB2C080E0FF
:1007E00080937E008091740090917500A0917600B6
:1007F000B091770080936C0090936D00A0936E0091
:10080000B0936F0080E28ABFEF91BF91AF919F914B
:100810008F917F916F915F914F913F912F911F9198
:100820000F910F900FBE0F901F901895833209F40F
:1008300072C0B399D7CF8F5F80937E0080917A008A
:1008400090917B00A0917C00B0917D00B695A7951A
:100850009795879580937A0090937B00A0937C0076
:10086000B0937D00409170005091710060917200D2
:10087000709173008A019B01005B144021093109CA
:100880000132134021053105E0F14C52514061091C
:100890007109493552406105710508F4A3CF1092E2
:1008A0007E00A0CF86B383FB992790F981E089274A
:1008B00080937E001092800010928100109282003E
:1008C0001092830010926C0010926D0010926E00D6
:1008D00010926F0097CF8091700090917100A0915D
:1008E0007200B091730086569142A109B109853812
:1008F0009340A105B10508F072CFB39B70CF82E0A1
:100900006FCFB06880937A0090937B00A0937C00B7
:10091000B0937D0067CF81E080937F0010927E00CE
:100920001092800010928100109282001092830039
:1009300010926C0010926D0010926E0010926F0079
:1009400061CF83E04DCF1F920F920FB60F9211240B
:100950008F939F93AF93BF9380918000909181007C
:10096000A0918200B09183000196A11DB11D8093DA
:10097000800090938100A0938200B0938300BF9188
:10098000AF919F918F910F900FBE0F901F90189570
:1009900087B3866087BB6C9A0895662391F0FC014B
:1009A000AC01460F511D81918FB928E030E08DB127
:1009B00083608DB9689A21503109C9F7E417F507AA
:1009C00091F708958FB928E030E08DB183608DB93B
:1009D000689A21503109C9F7089580918500F2DFA6
:1009E00063E080E690E0D9CFCF93DF93BC9A8FEF9E
:1009F00080938500CDDF64E087E690E0CEDFCDE137
:100A0000D0E0EBDF2197E9F764E083E690E0C5DF13
:100A100012BE83B7846083BF89B78D7F89BFDF91A2
:100A2000CF910895CF93DF93F8948F3120EE920702
:100A300009F4D8C088F185312AEE920709F4BFC0C5
:100A400008F448C081312EEE920709F4DCC008F4A6
:100A500058C0873028EF920709F41AC1863029EF71
:100A6000920709F40EC180319F4E09F4C3C089B7C3
:100A70008D7F89BF64E087E690E08FDFCDE1D0E035
:100A8000ACDF2197E9F764E083E690E086DFC49865
:100A90007894DF91CF91089580352FEA920709F479
:100AA000DAC008F040C0893526EA920709F47FC011
:100AB00008F04DC08D3522EA920709F4C4C08C3588
:100AC000934AA9F6809185008F718F5F806E809325
:100AD0008500D0CF883127EE920709F477C008F45B
:100AE00049C0873128EE920709F4C6C08631994E75
:100AF00009F0BDCF80916000807F805F80936000AF
:100B0000B6CF84312BEE920709F486C082319D4E18
:100B100009F0ADCF8091600090EF980F8F70890F32
:100B200080936000A4CF85342AEB920709F483C038
:100B300070F184342BEB920709F475C081349E4B1D
:100B400009F095CF99B782E0892789BFA0CF883572
:100B500027EA920709F488C084359B4A09F087CFB9
:100B60008AEF8093620080E88093610082E780933F
:100B700060007DCF8C3123EE920781F58FEF80935B
:100B8000620085EA809361001092600070CF8C341F
:100B900023EB920721F08834974B09F068CF8FEF51
:100BA00080936200109261008093600060CF109289
:100BB00062008FEF809361001092600058CF8091A7
:100BC0006100807F805F8093610051CF8FEF8093C1
:100BD0006200809361001092600049CF8B31944E87
:100BE00009F045CF109262008FEF809361008093EF
:100BF00060003DCF80916200982F9F708051890FD7
:100C00008093620034CF80916100982F9F70805153
:100C1000890F809361002BCF80916200807F805F7D
:100C20008093620024CF8FEF8093620080936100F5
:100C3000809360001CCF10926200109261008FEFD1
:100C40008093600014CF809185008F718150806EF9
:100C5000809385000FCF8FEF809362008CE88093A4
:100C600061001092600003CF8FEF809362001092BA
:100C7000610010926000FBCE93B781E0892783BFAB
:100C800006CF89B7826089BF81E080938400FFCE60
:100C900089B7826089BF10928400F9CE78941F9240
:100CA0000F920FB60F9211242F933F934F935F93A0
:100CB0006F937F938F939F93AF93BF93CF93DF9364
:100CC000EF93FF9364E087E690E067DEC0E0D0E05A
:100CD0002BC08091780090917900FC01EC0FFD1FF2
:100CE000F170E25EFB4FE491E695E0936200211122
:100CF00025C0FE01E80FF91FF170E25EFD4FE4919F
:100D0000E695E0936100211103C08C0F9D1F917047
:100D1000FC01E25EFF4FE491E695E09360005DDE4A
:100D20002896C83ED10561F020918400222389F2E3
:100D3000E0917800F0917900CF01D3CFFC01DDCFB5
:100D400064E083E690E029DE80917800909179005C
:100D5000019691709093790080937800FF91EF91C4
:100D6000DF91CF91BF91AF919F918F917F916F91C3
:100D70005F914F913F912F910F900FBE0F901F9059
:060D80001895F894FFCF66
:0C0D86000000FFFFFFFFFF000000000066
:040000050080006710
:00000001FF
