:100000000EC01DC01EC01BC01AC019C018C017C02A
:1000100016C015C014C013C012C011C010C01124E6
:100020001FBECFE5D1E0DEBFCDBF20E0A0E6B0E04F
:1000300001C01D92AA36B207E1F702D08CC0E0CF12
:10004000FFCF1F920F920FB60F9211242F933F9361
:100050008F939F93AF93BF93C39AB4996CC0109240
:100060006200109263001092640010926500B49BCD
:10007000FECF1092600008C0809160008F5F809377
:100080006000882309F457C0B499F6CF20E230E02D
:100090008091620090916300A0916400B09165002E
:1000A000B695A79597958795809362009093630086
:1000B000A0936400B0936500B49BFECF87E18A955E
:1000C000F1F700C0B49B11C0809162009091630071
:1000D000A0916400B0916500B06880936200909335
:1000E0006300A0936400B09365001092600007C0A5
:1000F000809160008F5F809360008823E1F0B49965
:10010000F7CF2150310921F687E18A95F1F700C038
:100110008091620090916300A0916400B0916500AD
:100120008093660090936700A0936800B093690085
:1001300081E08093610000008AB780628ABFC39823
:10014000BF91AF919F918F913F912F910F900FBED3
:0A0150000F901F901895F894FFCF50
:00000001FF
