:100000000EC01DC0C4C01BC01AC019C018C017C084
:1000100016C015C014C013C012C011C010C01124E6
:100020001FBECFE5D1E0DEBFCDBF20E0A0E6B0E04F
:1000300001C01D92AA36B207E1F750D021C2E0CF2D
:10004000BF93AF939F938F937F936F935F934F93E0
:10005000B39AB49933C0A2E6B0E066277727882721
:100060009927B49BFECF5527B49B01C0FDCF4427F1
:100070009695879577956795B49BFECF29D0B49BCD
:1000800001C090685527B49BF3CF0000000000002A
:100090000000539599F0F7CF4395403249F718D0B7
:1000A000660F771F881F991F6D937D938D939D9386
:1000B000A6E6B0E06D937D938D939D93B398BF9129
:1000C000AF919F918F917F916F915F914F91089523
:1000D0009F9390E09395F1F79F910895CF93DF93CD
:1000E000CDB7DEB797D1A0D1FECFCF93DF93CDB7F9
:1000F000DEB787E390E027E330E0F9012081286054
:10010000FC01208385E390E025E330E0F9012081C4
:100110002061FC0120838BE590E02BE530E0F901C4
:1001200020812062FC0120838FE590E02FE530E004
:10013000F90120812068FC012083109261000000F9
:10014000DF91CF910895CF93DF93CDB7DEB7809144
:100150006100882321F01092610081E001C080E0FD
:10016000DF91CF910895CF93DF93CDB7DEB7109293
:1001700061008091660090916700A0916800B09145
:100180006900CD01AA27BB27DF91CF9108951F9267
:100190000F9200905F000F9211242F933F934F9383
:1001A0005F936F937F938F939F93AF93BF93EF93DF
:1001B000FF93CF93DF9300D0CDB7DEB788E390E015
:1001C00028E330E0F90120812860FC01208386E3E8
:1001D00090E0FC018081882F90E080719927892B25
:1001E00009F09DC0109262001092630010926400AA
:1001F00010926500000086E390E0FC018081882F6A
:1002000090E080719927892BB1F3109260000AC0A9
:10021000809160008F5F80936000809160008823F0
:1002200009F47FC086E390E0FC018081882F90E094
:1002300080719927892B61F71A82198256C08091A3
:10024000620090916300A0916400B0916500B69542
:10025000A795979587958093620090936300A093EC
:100260006400B0936500000086E390E0FC018081AB
:10027000882F90E080719927892BB1F329DF86E3DD
:1002800090E0FC018081882F90E080719927892B74
:1002900089F08091620090916300A0916400B09118
:1002A0006500B0688093620090936300A09364003F
:1002B000B09365001092600009C0809160008F5F6C
:1002C0008093600080916000882369F186E390E06C
:1002D000FC018081882F90E080719927892B69F734
:1002E00089819A8101969A83898389819A818097ED
:1002F0000CF4A5CFEDDE8091620090916300A09197
:100300006400B09165008093660090936700A093AD
:100310006800B093690081E08093610005C000002F
:1003200003C0000001C0000000008AE590E02AE55B
:1003300030E0F90120812062FC01208388E390E015
:1003400028E330E0F9012081277FFC0120830000B1
:100350000F900F90DF91CF91FF91EF91BF91AF91EF
:100360009F918F917F916F915F914F913F912F91CD
:100370000F9000925F000F901F901895CF93DF931E
:10038000CDB7DEB787E390E027E330E0F9012081C5
:100390002660FC01208388E390E028E330E0F90147
:1003A0002081297FFC0120838DE290E02DE230E066
:1003B000F90120812061FC0120830000DF91CF91B1
:1003C0000895CF93DF9300D01F92CDB7DEB78B8314
:1003D0008FE290E02B81FC0120831A8219820FC0EA
:1003E0008DE290E021E1FC0120838DE290E023E1A9
:1003F000FC01208389819A8101969A83898389816E
:100400009A8108976CF300000F900F900F90DF9186
:10041000CF910895CF93DF93CDB7DEB7AFDF65DE21
:100420000000DF91CF910895CF93DF93CDB7DEB772
:100430008ADE882309F197DE8C3523EA920781F062
:100440008D3523EA920720F48D35924A61F014C06D
:1004500081342EEB920751F080349F4B51F00CC049
:1004600080E0AFDF09C081E0ACDF06C082E0A9DF39
:1004700003C083E0A6DF00000000DF91CF91089564
:04048000F894FFCF1E
:00000001FF
