:100000000EC01DC01CC01BC05CC019C018C017C0EA
:100010002DC015C014C013C012C011C010C01124CF
:100020001FBECFE5D1E0DEBFCDBF20E0A0E6B0E04F
:1000300001C01D92A236B207E1F710D08DC0E0CF0B
:100040008FE087BB18BA0895399A86B1886A86B955
:100050001A9AA49A83B7856083BF089510926100AD
:1000600010926000EDDFF0DF7894FFCF1F920F92C7
:100070000FB60F9211242F938F939F93CF93DF93FB
:1000800000D0CDB7DEB782E088BF85B190E09A831B
:10009000898389819A81982F88279A83898324B1BB
:1000A00089819A81822B9A8389830F900F90DF91A7
:1000B000CF919F918F912F910F900FBE0F901F9016
:1000C00018951F920F920FB60F9211245F936F93A2
:1000D0007F938F939F93AF93BF9380916000909194
:1000E0006100892B69F488B38F7090E001968F705E
:1000F0009078992324F40197806F9F6F019688BBB5
:100100008091600090916100019668E873E110D0E1
:100110009093610080936000BF91AF919F918F9108
:100120007F916F915F910F900FBE0F901F90189568
:10013000AA1BBB1B51E107C0AA1FBB1FA617B7070D
:1001400010F0A61BB70B881F991F5A95A9F7809529
:0C0150009095BC01CD010895F894FFCFFC
:00000001FF
