:100000000EC01DC01CC01BC064C019C018C017C0E2
:1000100025C015C014C013C012C011C010C01124D7
:100020001FBECFE5D1E0DEBFCDBF20E0A0E6B0E04F
:1000300001C01D92A436B207E1F73ED097C0E0CFD1
:100040008FE087BB18BA0895399A86B1886A86B955
:100050001A9AA49A83B7856083BF08951F920F925E
:100060000FB60F9211248F939F9382E088BF84B1C3
:1000700095B19695879596958795009729F09093D9
:1000800061008093600006C081E090E09093610081
:10009000809360009F918F910F900FBE0F901F90E3
:1000A00018951FBC8FEF8EBD8DBD89B7846089BF49
:1000B00080B7846480BF089510926300109262003C
:1000C0001092610010926000BBDFBEDFEADF78941F
:1000D000FFCF1F920F920FB60F9211245F936F9371
:1000E0007F938F939F93AF93BF9380916200909182
:1000F0006300892B69F488B38F7090E001968F704C
:100100009078992324F40197806F9F6F019688BBA4
:1001100080916200909163000196609160007091FF
:10012000610010D09093630080936200BF91AF9103
:100130009F918F917F916F915F910F900FBE0F9064
:100140001F901895AA1BBB1B51E107C0AA1FBB1F1C
:10015000A617B70710F0A61BB70B881F991F5A9553
:10016000A9F780959095BC01CD010895F894FFCF33
:00000001FF
