:020000040800F2
:10000000700E002051040008590400085B04000829
:100010005D0400085F04000861040008000000009F
:100020000000000000000000000000006304000861
:100030006504000800000000670400086904000867
:100040006B0400086B0400086B0400086B040008D4
:100050006B0400086B0400086B0400086B040008C4
:100060006B0400086B0400086B0400086B040008B4
:100070006B0400086B0400086B0400086B040008A4
:100080006B0400086B0400086B0400086B04000894
:100090006B0400086B0400086B0400086B04000884
:1000A0006B0400086B0400086B0400086B04000874
:1000B0006B04000800000000000000006B04000852
:1000C0006B04000800000000000000006B04000842
:1000D00000000000A5020008C102000800000000A6
:1000E0006B0400086B040008000000000000000022
:1000F0000000000000000000000000000000000000
:100100000000000000000000000000006B04000878
:1001100000000000000000006B0400086B040008F1
:100120006B0400086B0400086B0400086B040008F3
:100130006B04000800000000000000000000000048
:100140006B0400086B0400086B0400086B040008D3
:100150006B0400086B0400086B0400086B040008C3
:100160006B0400086B0400086B040008000000002A
:100170006B0400086B040008000000000000000091
:100180006B0400086B0400086B04000800F002F820
:1001900000F03CF80AA090E8000C82448344AAF1E5
:1001A0000107DA4501D100F031F8AFF2090EBAE8E3
:1001B0000F0013F0010F18BFFB1A43F0010318479B
:1001C000F004000010050000103A24BF78C878C180
:1001D000FAD8520724BF30C830C144BF04680C604D
:1001E000704700000023002400250026103A28BF95
:1001F00078C1FBD8520728BF30C148BF0B60704799
:100200001FB500F027FA1FBD10B510BD00F043F96F
:100210001146FFF7F5FF00F013FA00F061F903B49F
:10022000FFF7F2FF03BC00F069F900004FF0000196
:10023000018041807047028843889A4202D14FF082
:100240000100704700F10400835C0B7002F10102B1
:1002500040F2FF3302EA030220F8042C4FF00000C2
:1002600070472DE9F0010288438840F2FF3403F122
:10027000010303EA04039A4204D14FF00100BDE8F0
:10028000F0017047428800F10400815420F8023CDC
:10029000BDE8F0014FF000007047000048656C6C4D
:1002A0006F0A00006048614A92F824102DE90F504F
:1002B000FFF7D7FF4FF008005C4A1062BDE80F90CF
:1002C0005B485C4A92F824102DE90F50FFF7C9FFF4
:1002D0004FF00800574A1062BDE80F905648016879
:1002E00041F4807101605548016841F008010160E6
:1002F000016821F0F00141F0A001016070474F4812
:10030000C16C41F00101C1644FF0904001684C4A5A
:1003100021EA02014B4B41EA03010160C16821EA75
:10032000020141EA0301C160016A41F4E061016236
:10033000416A454A41EA0201416270473F48D0F8AC
:10034000881041F00401C0F88810816D41F400313B
:1003500081653848016841F00C0101603B4A126830
:100360004FF4E133B2FBF3F1C160016841F02101C8
:10037000016070473148D0F8881021F0030141F046
:100380000101C0F88810016E41F4804101662748E0
:10039000016841F00C0101602C4A12684FF4E1330E
:1003A000B2FBF3F1C160016841F0210101607047C7
:1003B0002DE90F50FFF792FF00F0A8F81C48FFF757
:1003C00035FF1948FFF732FFFFF799FFFFF7B6FF38
:1003D000FFF7D0FF82B01748C26902F0C002C03AEE
:1003E0000AD111486946FFF726FF002804D19DF87D
:1003F0000010104880F828100C48C26902F0C002B2
:10040000C03AE8D10A4801A9FFF715FF0028E2D158
:100410009DF80410054880F82810DCE74FF0000034
:1004200002B0BDE80F9000006800002000380140D5
:100430006C040020004400400070004000100240A6
:1004400030003CC0200028807007003000000020F1
:100450000948804709480047FEE7FEE7FEE7FEE758
:10046000FEE7FEE7FEE7FEE7FEE7FEE70448054994
:10047000054A064B70470000CD0500088D010008B5
:1004800070080020700E0020700A0020700A002002
:10049000704770477047754600F02CF8AE4605006F
:1004A0006946534620F00700854618B020B5FFF78F
:1004B000DDFFBDE820404FF000064FF000074FF091
:1004C00000084FF0000BAC46ACE8C009ACE8C0092E
:1004D000ACE8C009ACE8C00921F007018D467047BF
:1004E00010B50446AFF300802046BDE81040FFF78A
:1004F00096BE0000004870470800002001491820FF
:10050000ABBEFEE7260002007047000041F20C007F
:10051000C4F2020050F80C1C090703D4D0F888106C
:10052000090A02E050F80C1C090940F2806250F8F8
:10053000043C01F00F01C0F6000252F82110C3F391
:100540008102DFE802F02F02070C42F20041C0F204
:10055000F40127E041F20021C0F27A0122E00368B1
:10056000026803F00303C2F30212022B02F101023C
:1005700006D0032B04BF41F20021C0F27A0103E050
:1005800042F20041C0F2F4010368B1FBF2F1C3F39F
:10059000062203685143C3F34162022303EB420284
:1005A000B1FBF2F140F20002C2F20002116050F819
:1005B000040C40F26E61C0F30310C0F60001085C49
:1005C000116821FA00F01060704700004EF6885064
:1005D000CEF2000001684FF0000C41F470010160A0
:1005E00041F20001C4F202010A6842F001020A600D
:1005F000C1F808C00B684FF6FF72CEF6F6221A401B
:100600000A604FF48052CA600A6822F480220A60AD
:10061000C1F818C04FF0006140F8801C704700001E
:10062000002848BF704700F01F01012202FA01F1C3
:100630004EF200124009CEF2000242F8201070473C
:1006400080B52520FFF7ECFF2620FFF7E9FFFFF735
:10065000AFFE80BDF1EE100A4FF6FF71C0F2C0315F
:1006600020EA010040F04070E1EE100A70470000FF
:100670000000000000000102030406070809000052
:10068000A0860100400D0300801A060000350C0012
:1006900040420F0080841E0000093D0000127A00D5
:1006A0000024F40000366E010048E801006CDC0212
:1006B000D00600080000002004000000C801000867
:1006C000D406000808000020680E0000E4010008BD
:0406D00000093D00E0
:04000005080004519A
:00000001FF
