:020000040800F2
:10000000702600202D020008350200083702000883
:10001000390200083B0200083D0200080000000011
:100020000000000000000000000000003F02000887
:1000300041020008000000004302000845020008D9
:10004000470200084702000847020008470200086C
:10005000470200084702000847020008470200085C
:10006000470200084702000847020008470200084C
:10007000470200084702000847020008470200083C
:10008000470200084702000847020008470200082C
:10009000470200084702000847020008470200081C
:1000A000470200084702000847020008470200080C
:1000B000470200080000000000000000470200089E
:1000C000470200080000000000000000470200088E
:1000D00000000000E1060008090700080000000019
:1000E000470200084702000800000000000000006E
:1000F0000000000000000000000000000000000000
:10010000000000000000000000000000470200089E
:10011000000000000000000047020008470200083D
:10012000470200084702000847020008470200088B
:10013000470200080000000000000000000000006E
:10014000470200084702000847020008470200086B
:10015000470200084702000847020008470200085B
:10016000470200084702000847020008000000009C
:1001700047020008470200080000000000000000DD
:1001800047020008470200084702000800F002F892
:1001900000F03CF80AA090E8000C82448344AAF1E5
:1001A0000107DA4501D100F031F8AFF2090EBAE8E3
:1001B0000F0013F0010F18BFFB1A43F0010318479B
:1001C000F006000010070000103A24BF78C878C17C
:1001D000FAD8520724BF30C830C144BF04680C604D
:1001E000704700000023002400250026103A28BF95
:1001F00078C1FBD8520728BF30C148BF0B60704799
:100200001FB500F027FB1FBD10B510BD00F031F881
:100210001146FFF7F5FF00F0A3FA00F04FF803B422
:10022000FFF7F2FF03BC00F057F8000009488047D1
:1002300009480047FEE7FEE7FEE7FEE7FEE7FEE7C8
:10024000FEE7FEE7FEE7FEE704480549054A064BE0
:1002500070470000750600088D010008702000201E
:100260007026002070220020702200207047704706
:100270007047754600F02CF8AE46050069465346B7
:1002800020F00700854618B020B5FFF7DDFFBDE878
:1002900020404FF000064FF000074FF000084FF0ED
:1002A000000BAC46ACE8C009ACE8C009ACE8C0093A
:1002B000ACE8C00921F007018D46704710B504462F
:1002C000AFF300802046BDE81040FFF7A8BF000054
:1002D000004870470800002001491820ABBEFEE727
:1002E000260002007047000080B541F28801C4F288
:1002F0000201086840F00100086041F26001C4F2A8
:100300000201086840F48040086043F60001C4F22E
:100310000101086840F00C00086040F20000C2F2E1
:10032000000000684BF2C532C9F2A212A0FB022005
:10033000000C43F60C02C4F201021060086840F0A1
:1003400001000860086840F020000860252000F0E7
:10035000EFF980BD83B001900091019941F2020054
:10036000085A4FF48052895A884204D1FFE701208D
:100370008DF80B0011E0019841F20202815A50F809
:100380002100009908600199885A01306FF39F207D
:10039000885200208DF80B00FFE79DF80B0003B09A
:1003A0007047000081B00090009941F202020020E5
:1003B000885200994FF48052885201B07047000073
:1003C00083B00190009101994FF48050085A013098
:1003D0006FF39F2041F20202895A884204D1FFE75D
:1003E00001208DF80B0010E0009801994FF4805225
:1003F0008B5A41F823000199885A01306FF39F20EE
:10040000885200208DF80B00FFE79DF80B0003B029
:100410007047000041F24C01C4F20201086840F04C
:10042000010008604FF0904108684FF6CF73C3F6A3
:10043000C3731840086008682022C8F228021043DD
:1004400008600C21C4F600010868184008600868BC
:10045000104308602021C4F60001086840F4E06001
:1004600008602421C4F60001086840F27072C3F2EB
:10047000000210430860704780B541F28801C4F261
:100480000201086840F00400086041F25801C4F21B
:100490000201086840F40030086044F20041C4F2F0
:1004A0000001086840F00C00086040F20000C2F251
:1004B000000000684BF2C532C9F2A212A0FB020391
:1004C00044F20C42C4F20002106840EA134010608B
:1004D000086840F001000860086840F020000860EB
:1004E000262000F025F980BD88B0002107910691F3
:1004F0000591022004900391029041F20000C4F2A1
:10050000020000680007002809D4FFE741F29400C8
:10051000C4F202000068C0F30320069008E041F234
:100520000000C4F202000068C0B200090690FFE7B4
:10053000069940F68000C0F6000050F821000690B1
:1005400041F20800C4F20200006800F00C0001460D
:1005500001910C2800F270800199DFE801F0076D2D
:100560006D6D0E6D6D6D186D6D6D2200069840F20B
:100570000001C2F20001086065E040F20001C2F231
:10058000000142F20040C0F2F40008605BE040F27B
:100590000001C2F2000141F20020C0F27A000860BE
:1005A00051E041F20C00C4F20200016801F00301C5
:1005B0000391006800F07001012000EB111002901F
:1005C00003980090022804D0FFE70098032809D080
:1005D00011E0029942F20040C0F2F400B0FBF1F0E9
:1005E00005900EE0029941F20020C0F27A00B0FBC3
:1005F000F1F0059005E006980299B0FBF1F0059046
:10060000FFE7059941F20C00C4F202000268C2F350
:10061000062251430591006800F0C061022000EB02
:100620001160049005980499B0FBF1F040F20001CC
:10063000C2F20001086006E0069840F20001C2F232
:1006400000010860FFE741F20800C4F20200006800
:10065000C0B2010940F66E00C0F60000405C079091
:10066000079A40F20001C2F200010868D040086019
:1006700008B070474EF68851CEF20001086840F489
:100680007000086041F20002C4F20202106840F0FB
:100690000100106041F20801C4F20201002008606C
:1006A00011684FF6FF73CEF6F6231940116041F240
:1006B0000C03C4F202034FF480511960116821F455
:1006C0008021116041F21801C4F2020108604EF667
:1006D0000851CEF200014FF0006008607047000042
:1006E00080B543F62400C4F20100018840F268009E
:1006F000C2F20000FFF764FE43F62001C4F20101DC
:100700000820086080BD000080B544F22440C4F297
:100710000000018841F26C00C2F20000FFF750FEB9
:1007200044F22041C4F200010820086080BD0000AE
:1007300081B08DF803009DF9030000280ED4FFE777
:100740009DF9031001F01F02012090404A094EF26A
:100750000011CEF2000141F82200FFE701B070471E
:1007600080B584B00020039000F05EF8FFF7BCFE77
:10077000FFF750FEFFF780FEFFF7B6FD41F26C0079
:10078000C2F20000FFF70EFE40F26800C2F2000065
:10079000FFF708FEFFE744F21C40C4F200000068C7
:1007A000000600281BD5FFE744F21C40C4F20000FD
:1007B00000684006002812D5FFE740F26800C2F248
:1007C000000001A9FFF7C6FD40B9FFE79DF804004E
:1007D00044F22841C4F200010880FFE7FFE743F636
:1007E0001C00C4F201000068000600281BD5FFE7CA
:1007F00043F61C00C4F2010000684006002812D530
:10080000FFE741F26C00C2F2000002A9FFF7A2FD6F
:1008100040B9FFE79DF8080043F62801C4F2010142
:100820000880FFE7FFE7B6E747F20001C4F20001E6
:10083000086840F48070086041F20001C4F20201CF
:10084000086840F00800086008680A2262F3071090
:1008500008607047F1EE100A4FF6FF71C0F2C03128
:1008600020EA010040F04070E1EE100A70470000FD
:100870000000000000000102030406070809000050
:10088000A0860100400D0300801A060000350C0010
:1008900040420F0080841E0000093D0000127A00D3
:1008A0000024F40000366E010048E801006CDC0210
:1008B000D00800080000002004000000C801000863
:1008C000D40800080800002068260000E4010008A1
:0408D00000093D00DE
:040000050800022DC0
:00000001FF
