:020000040800F2
:10000000702600202D020008350200083702000883
:10001000390200083B0200083D0200080000000011
:100020000000000000000000000000003F02000887
:1000300041020008000000004302000845020008D9
:10004000470200084702000847020008470200086C
:10005000470200084702000847020008470200085C
:10006000470200084702000847020008470200084C
:10007000470200084702000847020008470200083C
:10008000470200084702000847020008470200082C
:10009000470200084702000847020008470200081C
:1000A000470200084702000847020008470200080C
:1000B000470200080000000000000000470200089E
:1000C000470200080000000000000000470200088E
:1000D00000000000750500089505000800000000FC
:1000E000470200084702000800000000000000006E
:1000F0000000000000000000000000000000000000
:10010000000000000000000000000000470200089E
:10011000000000000000000047020008470200083D
:10012000470200084702000847020008470200088B
:10013000470200080000000000000000000000006E
:10014000470200084702000847020008470200086B
:10015000470200084702000847020008470200085B
:10016000470200084702000847020008000000009C
:1001700047020008470200080000000000000000DD
:1001800047020008470200084702000800F002F892
:1001900000F03CF80AA090E8000C82448344AAF1E5
:1001A0000107DA4501D100F031F8AFF2090EBAE8E3
:1001B0000F0013F0010F18BFFB1A43F0010318479B
:1001C0002805000048050000103A24BF78C878C10F
:1001D000FAD8520724BF30C830C144BF04680C604D
:1001E000704700000023002400250026103A28BF95
:1001F00078C1FBD8520728BF30C148BF0B60704799
:100200001FB500F043FA1FBD10B510BD00F031F866
:100210001146FFF7F5FF00F0DDF900F04FF803B4E9
:10022000FFF7F2FF03BC00F057F8000009488047D1
:1002300009480047FEE7FEE7FEE7FEE7FEE7FEE7C8
:10024000FEE7FEE7FEE7FEE704480549054A064BE0
:1002500070470000210500088D0100087020002073
:100260007026002070220020702200207047704706
:100270007047754600F02CF8AE46050069465346B7
:1002800020F00700854618B020B5FFF7DDFFBDE878
:1002900020404FF000064FF000074FF000084FF0ED
:1002A000000BAC46ACE8C009ACE8C009ACE8C0093A
:1002B000ACE8C00921F007018D46704710B504462F
:1002C000AFF300802046BDE81040FFF7A8BF000054
:1002D000004870470800002001491820ABBEFEE727
:1002E000260002007047000080B541F26000C4F2B1
:1002F0000200816A4BF2C53241F00101816201685E
:10030000C9F2A21241F48041016043F60000C4F238
:100310000100016841F00C01016040F20001C2F2ED
:1003200000010968A1FB0212110CC160016841F0D3
:1003300001010160016841F020010160252000F009
:1003400039F980BD00F5805C4FF48052BCF8023072
:10035000825A934204BF0120704750F8230008607E
:10036000581C6FF39F20ACF802000020704700007B
:100370004FF48051002242507047000080B54FF486
:10038000805230F802E000F5805C0EF10102BCF80A
:1003900002306FF39F229A420FBF012040F82E10C7
:1003A000ACF80020002080BD41F24C00C4F20200F5
:1003B00001684FF6CF7241F0010101604FF09040AB
:1003C0000168C3F6C3721140016001682023C8F2BE
:1003D0002803194301600C20C4F600000168114095
:1003E0000160016819430160416941F4E0614161C4
:1003F000816941F0405141F4EE6181617047000034
:1004000080B541F25800C4F20200016B4BF2C532D4
:1004100041F0040101630168C9F2A21241F4003104
:10042000016044F20040C4F20000016841F00C0198
:10043000016040F20001C2F200010968A1FB021252
:10044000C16841EA1241C160016841F001010160E7
:10045000016841F020010160262000F0ABF880BD6A
:1004600041F20C00C4F2020050F80C1C090703D43E
:10047000D0F88810090A02E050F80C1C090940F273
:10048000B86250F8043C01F00F01C0F6000252F8C7
:100490002110C3F38102DFE802F02F02070C42F2C1
:1004A0000041C0F2F40127E041F20021C0F27A01DC
:1004B00022E00368026803F00303C2F30212022B76
:1004C00002F1010206D0032B04BF41F20021C0F269
:1004D0007A0103E042F20041C0F2F4010368B1FB8B
:1004E000F2F1C3F3062203685143C3F341620223CE
:1004F00003EB4202B1FBF2F140F20002C2F2000251
:10050000116050F8040C40F2A661C0F30310C0F66D
:100510000001085C116821FA00F0106070470000CB
:100520004EF68850CEF2000001684FF0000C41F406
:100530007001016041F20001C4F202010A6842F058
:1005400001020A60C1F808C00B684FF6FF72CEF6D0
:10055000F6221A400A604FF48052CA600A6822F4F8
:1005600080220A60C1F818C04FF0006140F8801C7A
:100570007047000010B543F62004C4F20104A188BE
:1005800040F26800C2F20000FFF7F8FE0820206089
:1005900010BD000010B544F22044C4F20004A1884C
:1005A00041F26C00C2F20000FFF7E8FE0820206074
:1005B00010BD0000002848BF704700F01F01012255
:1005C00002FA01F14EF200124009CEF2000242F8A6
:1005D0002010704782B043F61C0444F21C45C4F25C
:1005E0000104C4F2000500F03BF8FFF739FF41F2C7
:1005F0006C08C2F200084046FFF7BAFE40F26809F4
:10060000C2F200094846FFF7B3FEFFF7CDFEFFF741
:10061000F7FEFFF769FE01AE6F4600BF28680006CF
:1006200044BF28685FEA406010D42068000644BFD9
:1006300020685FEA4060F1D540463146FFF782FE10
:100640000028EBD19DF80400A081E7E74846394631
:10065000FFF778FE0028E8D19DF80000A881E4E7C4
:1006600047F20000C4F2000001680A2241F48071E0
:10067000016041F20000C4F20200016841F008018B
:100680000160016862F3071101607047F1EE100A22
:100690004FF6FF71C0F2C03120EA010040F0407017
:1006A000E1EE100A704700000000000000000102A7
:1006B0000304060708090000A0860100400D03009E
:1006C000801A060000350C0040420F0080841E0096
:1006D00000093D0000127A000024F40000366E018B
:1006E0000048E801006CDC02080700080000002058
:1006F00004000000C80100080C07000808000020E2
:0C07000068260000E401000800093D002C
:040000050800022DC0
:00000001FF
