:020000040800F2
:10000000702600203902000841020008430200085F
:1000100045020008470200084902000800000000ED
:100020000000000000000000000000004B0200087B
:100030004D020008000000004F02000851020008B5
:10004000530200085302000853020008530200083C
:10005000530200085302000853020008530200082C
:10006000530200085302000853020008530200081C
:10007000530200085302000853020008530200080C
:1000800053020008530200085302000853020008FC
:1000900053020008530200085302000853020008EC
:1000A00053020008530200085302000853020008DC
:1000B0005302000800000000000000005302000886
:1000C0005302000800000000000000005302000876
:1000D00000000000F90800082109000800000000E5
:1000E0005302000853020008000000000000000056
:1000F0000000000000000000000000000000000000
:100100000000000000000000000000005302000892
:100110000000000000000000530200085302000825
:10012000530200085302000853020008530200085B
:100130005302000800000000000000000000000062
:10014000530200085302000853020008530200083B
:10015000530200085302000853020008530200082B
:100160005302000853020008530200080000000078
:1001700053020008530200080000000000000000C5
:1001800053020008530200085302000800F002F86E
:1001900000F040F80AA090E8000C82448344AAF1E1
:1001A0000107DA4501D100F035F8AFF2090EBAE8DF
:1001B0000F0013F0010F18BFFB1A43F0010318479B
:1001C0001009000030090000103A24BF78C878C137
:1001D000FAD8520724BF30C830C144BF04680C604D
:1001E000704700000023002400250026103A28BF95
:1001F00078C1FBD8520728BF30C148BF0B60704799
:100200001FB500F037FC0FBC00F014F80FB41FBD91
:1002100010B510BD00F033F81146FFF7F1FF00F004
:10022000ADFB00F051F803B4FFF7F2FF03BC00F0A0
:1002300059F8000000F06DB80948804709480047A8
:10024000FEE7FEE7FEE7FEE7FEE7FEE7FEE7FEE786
:10025000FEE7FEE704480549054A064B70470000E3
:100260008D0800088D0100087020002070260020F5
:10027000702200207022002070477047704775463A
:1002800000F02CF8AE4605006946534620F0070002
:10029000854618B020B5FFF7DDFFBDE820404FF0E0
:1002A00000064FF000074FF000084FF0000BAC467F
:1002B000ACE8C009ACE8C009ACE8C009ACE8C009CA
:1002C00021F007018D46704710B50446AFF300805A
:1002D0002046BDE81040FFF7A6BF00000048704769
:1002E0000800002001491820ABBEFEE726000200EE
:1002F0000246C91C21F00301D2E900031B1A8B42FC
:1003000001D2002070470144C91D21F0070111608E
:1003100070472DE9F34F83B000274FF48074BA463D
:1003200003A821468DF80070FFF7E2FF5FEA00089E
:1003300001D100F086F82146404600F073F806002F
:1003400009D04FF0010B4546C14616F8014B8FB15D
:100350005C2C16D01CE008F108004146C8F80000EB
:100360000020C8F80400D8F800402070012005B033
:1003700000F055B8222C01D0272C0FD12746BA46C1
:100380002CE03078222807D05C2805D0272803D01D
:10039000BC4203D1002721E0761C04464CB12FB9A2
:1003A000202C06D0A4F10900042802D905F8014B3D
:1003B000CBE74D4502D1BAF1000F0FD05246494666
:1003C000002005F8010B6846AFF300809DF800009F
:1003D00070B14D464FF0000A0BF1010B002CB4D167
:1003E0004FEA8B0103A8FFF783FF040002D004E06B
:1003F000A946EFE7002000F024F800204246C4F8A8
:10040000008005E012F8011B11B9401C44F82020BF
:10041000AA42F7D3002144F820102146A7E730BCB8
:10042000BDE8C08F1CB50446CDE900016946152022
:10043000ABBE08B100201CBD20461CBD70477047F4
:10044000704710B500F00AF8BDE81040AFF3008027
:10045000002801D0FFF746BF7047000010B5012803
:1004600005D0002103A000F021F8012010BD09A152
:10047000F8E7000053494752544D454D3A204F7517
:1004800074206F662068656170206D656D6F72798C
:10049000000000003A2048656170206D656D6F7244
:1004A0007920636F727275707465640070B505466B
:1004B0000C460A2000E06D1C00F011F835B12878D8
:1004C0000028F8D102E0641C00F009F814B120788B
:1004D0000028F8D1BDE870400A20AFF3008008B5CD
:1004E00069468DF800000320ABBE08BD80B582B020
:1004F00041F28800C4F20200016841F0010101608C
:1005000041F26000C4F20200016841F480410160E0
:1005100043F60000C4F20100016841F00C010160E3
:1005200040F20001C2F2000109684BF2C532C9F283
:10053000A212A1FB0212120C43F60C03C4F2010337
:100540001A60026842F001020260026842F0200272
:1005500002602520019100F0F7F902B080BD000093
:1005600083B001900091019841F20201415A4FF489
:100570008052805A814204D1FFE701208DF80B00A0
:1005800011E0019841F20201425A50F82200009A0B
:1005900010600198425A01326FF39F2242520020AC
:1005A0008DF80B00FFE79DF80B0003B070470000CB
:1005B00081B00090009841F202010022425200985E
:1005C0004FF48051425201B07047000083B0019057
:1005D000009101984FF48051415A01316FF39F21EE
:1005E00041F20202805A814204D1FFE701208DF8D6
:1005F0000B0010E0009801994FF480528B5A41F89B
:1006000023000198815A01316FF39F21815200200C
:100610008DF80B00FFE79DF80B0003B0704700005A
:1006200041F24C00C4F20200016841F00101016096
:100630004FF0904001684FF6CF72C3F6C37211407D
:10064000016001682023C8F22803194301600C20CF
:10065000C4F600000168114001600168194301609F
:100660002020C4F60000016841F4E061016024200C
:10067000C4F60000016840F27072C3F20002114338
:100680000160704780B582B041F28800C4F2020078
:10069000016841F00401016041F25800C4F2020017
:1006A000016841F40031016044F20040C4F20000EE
:1006B000016841F00C01016040F20001C2F200014A
:1006C00009684BF2C532C9F2A212A1FB021244F230
:1006D0000C43C4F20003D3F800C04CEA12421A6083
:1006E000026842F001020260026842F020020260E9
:1006F0002620019100F028F902B080BD88B00020CA
:10070000079006900590022104910390029141F216
:100710000000C4F2020000680007002809D4FFE7C7
:1007200041F29400C4F202000068C0F30320069076
:1007300008E041F20000C4F202000068C0B2000903
:100740000690FFE7069840F6A021C0F6000151F898
:100750002000069041F20800C4F20200006800F098
:100760000C0001460C28019100F270800199DFE82D
:1007700001F0076D6D6D0E6D6D6D186D6D6D220064
:10078000069840F20001C2F20001086065E040F204
:100790000000C2F2000042F20041C0F2F401016028
:1007A0005BE040F20000C2F2000041F20021C0F222
:1007B0007A01016051E041F20C00C4F202000168CC
:1007C00001F003010391006800F07000012101EBCA
:1007D0001010029003980228009004D0FFE70098C0
:1007E000032809D011E0029842F20041C0F2F4015E
:1007F000B1FBF0F005900EE0029841F20021C0F24A
:100800007A01B1FBF0F0059005E006980299B0FB83
:10081000F1F00590FFE7059841F20C01C4F20201E6
:100820000A68C2F3062250430590086800F0C060D1
:10083000022101EB1060049005980499B0FBF1F0DF
:1008400040F20001C2F20001086006E0069840F2A2
:100850000001C2F200010860FFE741F20800C4F2A3
:1008600002000068C0B2000940F68E21C0F6000107
:10087000085C0790079840F20001C2F200010A6884
:1008800022FA00F0086008B0704700004EF6885069
:10089000CEF20000016841F47001016041F20000F5
:1008A000C4F20200016841F00101016041F2080157
:1008B000C4F2020100220A6001684FF6FF73CEF60F
:1008C000F6231940016041F20C01C4F202014FF419
:1008D00080530B60016821F48021016041F218000F
:1008E000C4F2020002604EF60850CEF200004FF053
:1008F000006101607047000080B543F62400C4F237
:100900000100018840F26800C2F20000FFF75EFEBD
:1009100043F62001C4F2010108220A6080BD0000F4
:1009200080B544F22440C4F20000018841F26C001A
:10093000C2F20000FFF74AFE44F22041C4F2000177
:1009400008220A6080BD000081B001468DF80300D6
:100950009DF9030000280FD4FFE79DF9030000F084
:100960001F01012202FA01F140094EF20012CEF2FB
:10097000000242F82010FFE701B0704780B584B054
:100980000020039000F060F8FFF7B8FEFFF748FE84
:10099000FFF778FEFFF7AAFD41F26C00C2F20000FB
:1009A000FFF706FE40F26800C2F20000FFF700FE0B
:1009B000FFE744F21C40C4F2000000680006002873
:1009C0001CD5FFE744F21C40C4F20000006840065A
:1009D000002813D5FFE740F26800C2F2000001A929
:1009E000FFF7BEFD002808D1FFE79DF8040044F2A0
:1009F0002841C4F200010880FFE7FFE743F61C002E
:100A0000C4F201000068000600281CD5FFE743F689
:100A10001C00C4F2010000684006002813D5FFE75F
:100A200041F26C00C2F2000002A9FFF799FD002814
:100A300008D1FFE79DF8080043F62801C4F2010140
:100A40000880FFE7FFE7B4E747F20000C4F20000C8
:100A5000016841F48071016041F20000C4F20200BB
:100A6000016841F00801016001680A2262F3071180
:100A700001607047F1EE100A4FF6FF71C0F2C0310D
:100A800020EA010040F04070E1EE100A70470000DB
:100A9000000000000000010203040607080900002E
:100AA000A0860100400D0300801A060000350C00EE
:100AB00040420F0080841E0000093D0000127A00B1
:100AC0000024F40000366E010048E801006CDC02EE
:100AD000F00A00080000002004000000C80100081F
:100AE000F40A00080800002068260000E40100085D
:040AF00000093D00BC
:0400000508000239B4
:00000001FF
